:10000000E0430020AD5F000001CA011001CA0110E9
:1000100001CA011001CA011001CA011001CA011070
:1000200001CA011001CA011001CA011001CA011060
:0C00300001CA011001CA01103FCA0110F2
:100100003C0000000000000000000000340100007E
:1001100000000000000000000100000000000000DE
:1001200000000000000000000000000001000000CE
:0C013000000000000800000000000000BB
:10013C003400000000000000000000006801000016
:10014C0000000000000000000100000000000000A2
:10015C00010000000000000000000000080000008A
:04016C00000000008F
:1001700030000000000000000000000098010000B6
:10018000040000000000000001000000FFFFFFFF6E
:10019000FF00000001000000080000000000000057
:1001A0002C0000000000000000000000C40100005E
:1001B000040000000000000001000000FFFFFFFF3E
:0C01C000FFFFFFFF08000000000000002F
:1001CC0034050000E401000099A1011095A701106D
:1001DC00A5C2011009B2011045B8011000000000C1
:0801EC00000000002E000000DD
:1001F40028000000000000000000000014020000BD
:100204000000000000000000FFFFFFFF00000000EE
:080214000800000000000000DA
:10021C00300500003002000069C201106DC10110F0
:10022C001FC2011095BA0110000000000000000070
:04023C00300000008E
:10024000300500005402000075C20110A9B601106B
:100250009DBF011049B60110000000000000000021
:040260003100000069
:1002640024000000000000000000000080020000E4
:100274000000000000000000000000000800000072
:040284000000000076
:10028800240000000000000000000000A40200009C
:10029800000000000000000000000000080000004E
:0402A8000000000052
:1002AC00240000000000000000000000C802000054
:1002BC000000000001000000000000000800000029
:0402CC00000000002E
:1002D00000000000FC0900200400000000000000F5
:1002E000000000002000000070010000300000004D
:1002F0001C020000040A00200400000000000000AE
:10030000000000000C000000300400001800000095
:10031000400200000C0A0020040000000000000061
:100320000000000024000000480400001800000045
:1003300000000000140A002004000000000000007B
:100340000000000010000000A00100002C000000D0
:10035000CC0100001C0A0020040000000000000086
:1003600000000000200000006402000024000000E3
:10037000FFFFFFFF240A002004000000000000002F
:100380000000000028000000880200002400000097
:10039000FFFFFFFF2C0A0020040000000000000007
:1003A00000000000580000003C0100003400000084
:1003B000FFFFFFFF340A00200400000000000000DF
:1003C00000000000100000006004000018000000A1
:1003D000FFFFFFFF3C0A00200400000000000000B7
:1003E000000000001C000000AC020000240000001F
:1003F000FFFFFFFF440A002004000000000000008F
:100400000000000038000000F40100002800000097
:10041000FFFFFFFF4C0A0020040000000000000066
:100420000000000054000000000100003C0000003B
:100430001800000000000000000000004004000060
:080440000800000000000000AC
:100448001800000000000000000000005804000030
:08045800080000000000000094
:100460001800000000000000000000007004000000
:0804700008000000000000007C
:080478000100000030600000EB
:040484000100000073
:0404880000000C0064
:04048C0000000D005F
:040490003200000036
:040494000200000062
:0404980068080020D0
:04049C00000200005A
:0404A0000000000058
:0404A40001CA011078
:0404A8000000000050
:0404AC00000000004C
:0404B0000800000040
:0404B4000000200024
:0404B800FC0700201D
:0404BC00010000003B
:0404C00060090020AF
:0404C400080000002C
:0404C8000000000030
:0404CC00000000002C
:0404D0000000000028
:0404D4000000000024
:0404D8000000000020
:0404DC00010000001B
:0404E0009808002058
:0404E400060000000E
:0404E800010000000F
:0404EC002C070020B9
:0404F0000000000008
:0404F4000000000004
:0404F80000020000FE
:0404FC0000000000FC
:020502002A00CD
:020504000100F4
:020506002500CE
:020508003000C1
:02050A003100BE
:02050C002E00BF
:02050E000100EA
:0105100001E9
:0805140004000000EC5F000090
:08051C000000000000000000D7
:0405240000000100D2
:0405280000000300CC
:04052C0087C401106F
:04053000380500008A
:040534003805000086
:0405380000000000BF
:04053C00800000003B
:040540008000000037
:0405440000000000B3
:040548006009002026
:04054C00E31B0000AD
:040550002000000087
:04055400C45F000080
:04055800B05D000092
:04055C000DC30110BA
:040560006D13000017
:040564006F13000011
:0405680099C801101D
:04056C009BC8011017
:040570000000000087
:040574000E1900005C
:04057800C45C00005F
:04057C00DC5C000043
:04058000AC5C00006F
:0205840008006D
:0205860009006A
:02058800010070
:02058A0000006F
:01058C00016D
:040590000000000067
:040594000000000063
:04059800000000005F
:04059C00000000005B
:0405A000FF11000047
:0405A40065120000DC
:0405A800E11000005E
:0405AC008F120000AA
:0405B00045110000F1
:0405B400FD10000036
:0405B8008D110000A1
:0405BC00D112000058
:0405C000611B0000BB
:0405C400671D0000AF
:0405C8006B1D0000A7
:0405CC000800000023
:0405D0002400000003
:0405D400180000000B
:0405D80028000000F7
:0405DC0020000000FB
:0405E0003C000000DB
:0405E4000C00000007
:0405E80034000000DB
:1005EC00DFF800F0F5C00110DFF800F049BA011097
:1005FC00DFF800F025C20110DFF800F0C1C20110D5
:10060C00DFF800F0E3BF0110DFF800F013C10110B8
:10061C00DFF800F0D5C00110DFF800F095C0011034
:10062C00DFF800F00DA80110DFF800F0BDBE0110DE
:10063C00DFF800F02DBF0110DFF800F0E1B501107C
:10064C00DFF800F0D5C20110DFF800F0D9C20110BC
:10065C00DFF800F0F1C50110DFF8D400007D704721
:10066C0038B5DFF8D400DFF8CC500068EFF3118414
:10067C0080F31188A8680021FFF7CEFF6969081A7A
:10068C00A969814238BF002084F3118832BD000073
:10069C002DE9F041DFF8A000DFF898400768EFF390
:1006AC00118887F31188A0680121FFF7B5FF01219C
:1006BC00A1830021E183656921682268461B801AA9
:1006CC00691A884204D20020A08388F311882AE09A
:1006DC0088F31188002005E04519361A29460120B7
:1006EC00FFF79EFF8642F7D2EFF3118887F311884C
:1006FC00E18B012903D129460020FFF791FFA16965
:10070C0010F1010F08BF084603D0801B814238BF8F
:10071C0008464119FFF788FF012020840020A083A0
:10072C00256088F31188BDE8F081808A704700004D
:10073C00A40100207801002028600000DFF80410DC
:10074C00096870472860000000F00CBE80B50023DB
:10075C0001223421DFF8CC0901F0C2F800B10120EC
:10076C00C0B202BDDFF8C41A0A68002812BF42F0FA
:10077C000100500840000860704700007047FEE719
:10078C0010B582B0042001F0DFF8022818BF03284E
:10079C000DD1032000901C234FF040520021DFF8B4
:1007AC00840901F07AF8BDE81640042066E0DFF811
:1007BC007C19DFF87C0A09680C18DFF87419DFF86B
:1007CC00800A0968B0FBF1F12046FFF715FF2046BF
:1007DC00BDE81640FFF714BF80B5DFF85809007864
:1007EC00DFF88C0901688908890041F0010101607A
:1007FC0001F0B7F801F041F9DFF878190020086032
:10080C000220DFF874190968C9688847DFF8340AD0
:10081C00016849084900016000F017FA042000F053
:10082C000FF900F0A2BC00000022012904D101281C
:10083C0007D1DFF8480903E0012802D1DFF8100ADC
:10084C00026810467047DFF8E8090079704700002D
:10085C0001F09CB810B5DFF824160968EFF3118489
:10086C0081F31188DFF8C819C9880120012908BF54
:10087C00FFF76CFF84F3118810BD000030B5DFF872
:10088C00FC15DFF884390A68EFF3118182F31188C3
:10089C00B0FA80F2C2F11F02D25CB0FA80F4C4F15B
:1008AC001F04551EE55405D1DFF88429136823EA8B
:1008BC000000106081F3118830BD00002DE9F0417B
:1008CC00FFF73CFFEFF3118481F31188DFF8641913
:1008DC00425C531E435444D1DFF85C19DFF85C8949
:1008EC0001EB80052E786F88300618D5D8F80010EB
:1008FC00096A38468847D8F80010896A384688470C
:10090C00D8F80010096B38468847DFF83C190120ED
:10091C000860DFF8380900688007FAD514E0700623
:10092C0006D5DFF8981951F82710002088470BE0FE
:10093C00D8F80010896938468847D8F80010496BF8
:10094C00384688470228F8D106F03F003F2818BFE8
:10095C00FFF7B4FF687800F03F003F2818BFFFF79F
:10096C00ADFF84F31188BDE8F08110B508B1140017
:10097C0001D1032010BD8160C26003610146DFF824
:10098C00D428DFF8340912681018FFF751FE002044
:10099C0010BD0000F8B50446DFF8E004DFF8941849
:1009AC000068EFF3118580F31188625C531C63546B
:1009BC00002A3ED1DFF8801801EB8407387800F06C
:1009CC003F003F2818BFFFF7E5FF787800F03F00A5
:1009DC003F2818BFFFF7DEFF7E883878DFF85C7899
:1009EC00010613D53968C969304688473968496AA0
:1009FC00304688473968C96A3046884700F038F86D
:100A0C00DFF8480800688007FAD512E0400606D5E2
:100A1C00DFF8A81851F826100120884709E039683A
:100A2C004969304688473968496B30468847012800
:100A3C00F9D185F311882046BDE8F24001F07AB96E
:100A4C00DFF838140A68EFF3118182F31188DFF8AC
:100A5C00E027136803431360B0FA80F0C0F11F0065
:100A6C00DFF8A427835C5B1C835481F311887047E7
:100A7C00DFF8D41701200860704700002DE9F04F13
:100A8C004FF000080021012883B0C1468A4618BFE8
:100A9C00022412D1DFF8E403DFF81C780268EFF3CC
:100AAC00118082F311883A79012A06BF02223A7129
:100ABC00012180F3118809B10624BDE0FFF790FDF8
:100ACC000090012000F0DAF8040002D00120387107
:100ADC00AFE0FFF79DFDDFF810180190C1F8009012
:100AEC00012000F031FF012804D1002001F002F9AF
:100AFC004FF00108DFF8C847DFF8385721688968DC
:100B0C000020884700F0A1F8687C08B14FF001097B
:100B1C00287C08B149F00209E87B08B149F00409C6
:100B2C00E87ADFF8146718B1A16AF08D096B884771
:100B3C00A87A18B1A16A708D096B8847FFF798FFE6
:100B4C0049F02000A16A896988470120FFF70AFE55
:100B5C003878C00748BF4FF0010A12D4DFF880077D
:100B6C0001F014F98346BBF1040FF7D000F067F8DD
:100B7C008008800008600321A26CDFF864075268CB
:100B8C009047002001F00AF900F05FF8A06A806B32
:100B9C008047BAF1000F0AD1A26CDFF84407526803
:100BAC005946904700F04BF840F0030008600120D4
:100BBC00216889688847DFF82C0700688006FAD519
:100BCC00B8F1000F1CBF012001F094F8A16A49692B
:100BDC0048468847A16A496B484688470128F9D19D
:100BEC00E87A18B1A16AF08DC96A8847A87A18B159
:100BFC00A16A708DC96A8847FFF73AFF0020FFF79A
:100C0C00B1FD03203871042000F038F8DFF8D81655
:100C1C000120086000F019F801F0CEF9082000F06E
:100C2C002DF80446012038710198FFF705FD01F0FD
:100C3C004EF90098FFF7D8FC2046BDE8FE8FDFF890
:100C4C00B806DFF8B41600687047DFF8B006006825
:100C5C007047000038B58948DFF85C560068EFF340
:100C6C00118480F31188E888012803D100F0E2FE9A
:100C7C000020E88084F3118831BD000038B500F005
:100C8C002AF80818FFF7C0FC002540B9204600F0F0
:100C9C0008F820B1DFF8680600688047022528466E
:100CAC0032BD70B500F017F80D182846FFF7C8FCD8
:100CBC000646B068204206D03169F268204690475B
:100CCC00C0B2012806D03046FFF7BEFC0646AE4245
:100CDC00EFD1002070BDDFF87C1509680446DFF801
:100CEC00D805704730BF704770B501F061F9DFF877
:100CFC0040552E6806F00C000C284BD0700727D4FA
:100D0C00FFF7AEFC044600210120FFF78DFDA04249
:100D1C001ED2DFF8140400684519DFF814040668C5
:100D2C00DFF8E0050068B0FBF6F0211A2846FFF763
:100D3C0063FC2846FFF764FC4FF47A70B0FBF6F2C4
:100D4C0000210120FFF79AFE2846FFF751FC23E013
:100D5C0030071FD4DFF8EC04DFF8E044DFF87C55F3
:100D6C00F10601685ABF4908490041F001010160D0
:100D7C00DFF88405016841F003010160202021683F
:100D8C008969884728682068806B80470120286023
:100D9C00286801E0FFF7A6FF01F00EF9BDE87040EE
:100DAC0001F0C0B810B50C1801F002F9401E8041DA
:100DBC00C00FDFF860150A68002AFCD024680122F5
:100DCC000A6008B101F0F8F8204610BD80B5042087
:100DDC00FFF736FE0820FFF733FE0E20FFF7DAFD93
:100DEC00DFF82405DFF824150068C0F381500328D0
:100DFC000CBF012000200880DFF8140502680AB13E
:100E0C00012002BDDFF8103540221A600122C261B8
:100E1C000020486002BDDFF8601310B50968DFF8E8
:100E2C00FC4482B00968202088470F2020600723EB
:100E3C0041F61D5060604FF4C0720220009000F02B
:100E4C00C9F8DFF8DC040121016001688907FCD5D1
:100E5C0001212161DFF8B4442188012907D1002147
:100E6C0001610220202100F091F8012004E0012111
:100E7C00002000F08BF80220606013BD2860000099
:100E8C002DE9F041DFF89C04DFF8804482B0016862
:100E9C0042688A43426001616068002804BFBDE873
:100EAC00F341FFF7B8BF0128DFF87C141AD10220F8
:100EBC00606008684BF2F52148436188000A11B163
:100ECC000021618006E0DFF864140968090210EB68
:100EDC0011204008DFF858140860000C486001200D
:100EEC0088600CE002280FD10868B0F5C06F02D101
:100EFC000020606045E00321616000F06FF8012183
:100F0C00BDE8FC41002041E003283DD10020606099
:100F1C000868A0F5C065A06800F0B2F8064628463F
:100F2C0000F0AEF886422CDAA669284600F0ACF840
:100F3C008019A061E56860697A4E85420ED0A76978
:100F4C00A7F1100000F09CF880462069103800F0E2
:100F5C0097F8804502DABFB200970BE0ADB200956E
:100F6C0008234FF47F423021304600F096FC206974
:100F7C0080B2009012234FF4F8020421304600F0A6
:100F8C008CFCBDE8F3418AE0BDE8F38170B50D46F9
:100F9C00DFF8A04382B0032121600021DFF89863C1
:100FAC00316031688907FCD480B20090052360223F
:100FBC0000F010F80120306030688007FCD5A56186
:100FCC00002020600821DFF85003C160016001207F
:100FDC00206073BD0021534800F05FBC70B506461D
:100FEC00504C82B030212046FFF7DCFEDFF81C535A
:100FFC00C0F30720E86004212046FFF7D3FEC0F3BE
:10100C0084402861A6F5C060A8602E6900F03CF809
:10101C008019A861A969E868022909DA401E6FF0F5
:10102C003F039842B8BF184610310BD5002109E098
:10103C001E2908DB401C4028A8BF3F20103920295E
:10104C00A8BF1F21A9616861082380B200904FF4EA
:10105C007F42302100F011F80120009011234FF451
:10106C00003200F009F8A86980B2009012234FF406
:10107C00F80200F001F873BD0421204600F00DBC0D
:10108C00002848BF4042704700284CBF6FF0010158
:10109C00022101EB4000032190FBF1F0704780B579
:1010AC00DFF87C020021016001688907FCD4002173
:1010BC00016041600120DFF8581208600E20FFF734
:1010CC00FDFB0820FFF7DAFBBDE802400420FFF728
:1010DC00D5BB000010B504460020D4E90A2347F61E
:1010EC00906100F06DFF012928BF4FF0FF3010BD5B
:1010FC0010B50C4600F0DCFF011D201AB0F1004FBA
:10110C0005D8081BB0F1004F38BF8C4200D20C46FA
:10111C00DFF82C221268526A2146BDE810400120EB
:10112C001047000000A00C400C6000001060000094
:10113C002C600000BE2400202DE9F04180460A46B8
:10114C00D8E90A01D8E90C45A0FB026701FB02773C
:10115C00A6196F41340C002244EA07414046FFF7C0
:10116C00C7FFC8E90E67BDE8F0814FF0FF3002BD44
:10117C000440034040100940A00100101C60000016
:10118C00F8B50546DFF8BC01DFF8BC610068DFF894
:10119C00BC71EFF3118480F31188306840F080004B
:1011AC0030600120B96849688847F96A096A1420D7
:1011BC0088472869BA68526AB0F5802F34BF042179
:1011CC00010C012090473A681268232100209047B7
:1011DC00B968C96901208847306820F4E02040F4E0
:1011EC0080303060306840F00100306084F311884A
:1011FC00F1BDDFF86001036840680022002110187F
:10120C0059417047000000009C240020DFF8301189
:10121C00DFF8280110B5096844684968012088473F
:10122C006069A169BDE81040084700000C20084027
:10123C00BC06002058240020F45C0000B80100100B
:10124C00A08601008C210840282008602820084036
:10125C002060000014600000F8B504460D46FFF74E
:10126C00C8FFD4E90A6732463B4600F0A9FE3DB1FF
:10127C00A6FB002306FB013307FB0033C4E90C2358
:10128C00F2BD38B5DFF8C040DFF8C4502068400824
:10129C0040002060206840F0800020600120E06267
:1012AC00E06A2968496801208847696A096A14203C
:1012BC008847E06A31BD0000BC060020E809002028
:1012CC009001001080B500F004F8000C40EA0140D9
:1012DC0002BDDFF8840000688BE700002C20094079
:1012EC0000400340141009400C40094009B9DFF8D4
:1012FC006C10FFF7ADB90000242208402C200940E7
:10130C001860000024600000B43F00504409002025
:10131C0004800C4000800C402C500C400C400C40C5
:10132C0034600C4028500C4008400C401020094000
:10133C003C600C4000400C4038600C40E401002044
:10134C008C0100102860000000200940840100106E
:10135C008C01001008200940EC010020A0010000C5
:10136C00FEE7704710B5DFF86404046814F1010F50
:10137C0008BF002400F010FFDFF8541400200860B0
:10138C000120DFF850140860DFF84C140860DFF817
:10139C004C04006828B1DFF848040068204600F0CF
:1013AC0023F8DFF84004DFF840240168890889003D
:1013BC0041F0005141F005010160DFF83004016893
:1013CC006FF31B4111430160DFF824040168C1F382
:1013DC000131012907D10168DFF81824114041F4CB
:1013EC0000320260016010BD2DE9F84F0446DFF8B1
:1013FC00081401200860DFF8040401680029FCD0FF
:10140C00DFF8FC53DFF8FC83C0202860D8F80CA070
:10141C00D8F80810DFF8F00389075DBFD8F804107E
:10142C00090C41F0F00172210170DFF8E01309683A
:10143C00D8F80C20C1F304611629A8BF203901EBA0
:10144C002271491C6FF009029142B8BF114601F09C
:10145C001F0141F4F8510183CAF3C061DFF8B003F6
:10146C0081F001010160CAF3806181F001018160AA
:10147C0014B9DFF8A0732DE0DFF89C030068C0F30B
:10148C0083615FEA8A32C0F38F2021D44FEA0A428B
:10149C0012160AD54FF6FF73400804D118464908B6
:1014AC0004BF01210120521CF6D4012A10DB40009C
:1014BC0040F00100B0F5803F21BF0120490041F010
:1014CC000101102924BF0F214FF6FF70521EECE7CB
:1014DC0040EA014700F06CFD401E8041C00FCF4E2A
:1014EC0031680029FCD0DFF83893C9F8107001215D
:1014FC00316008B100F060FD0CB9D82008E0C64A94
:10150C0010681168C0F3870001F0030140EA012064
:10151C00009040F2FF3700233A462C21C14800F0DE
:10152C00BCF91CB1BC48C06A8704BF0C00F040FD7C
:10153C00401E8041C00F31680029FCD0C9F81470DE
:10154C000121316008B100F037FD002C0FBFB64F00
:10155C00B148406A20F0033700F02AFD401E80415C
:10156C00C00F31680029FCD0C9F80C700121316022
:10157C0008B100F021FD0CB9AC4F04E0A648AC4911
:10158C00006A01EA000700F013FD401E8041C00F05
:10159C0031680029FCD0C9F808700121316008B10C
:1015AC0000F00AFD0CB9A34F20E09B48806AD8F8E4
:1015BC000830DB07C0F30352C0F303410BD4D8F857
:1015CC0004301F0502EB27721B0482F3040201EBAB
:1015DC00237181F30401090441EA025182B242EA07
:1015EC000107222C24BF00F08040074300F0E0FCF0
:1015FC00401E8041C00F31680029FCD0C9F804702E
:10160C000121316008B100F0D7FC2220222C824F3E
:10161C0006D3F86B000F00F00100400040F02000F2
:10162C00854908721120222C05D3F86B400F00F06D
:10163C00010040F01000202C08724FF0000B07D373
:10164C00B86CC10C01F44071C0F3845040EA010B3A
:10165C0000F0AEFC401E8041C00F31680029FCD068
:10166C00C9F820B00121316008B100F0A5FC602060
:10167C00202C06D3B86C000D00F00300400040F0A5
:10168C0060006D49C8728020222C06D3F86BC00E06
:10169C0000F00100C00040F080000870222C4FF4D4
:1016AC007C4006D3F86B400D00F03F00800040F406
:1016BC007C406249DFF888B10880202C0AD3B86CD2
:1016CC000203810A02F47C1242EA815100F00F00FD
:1016DC0041EA003B00F06CFC401E8041C00F3168B9
:1016EC000029FCD0C9F800B00121316008B100F02C
:1016FC0063FC544844210170882181700CB930215D
:10170C0005E0F96BC90C01F0030141F03001C17027
:10171C004FEA9A5010F0030003D002283CD012D3A9
:10172C003CE00121042000F0EDF843F2BD70E863C9
:10173C008620286401206864434801680029FCD095
:10174C00002068642EE0012000F0FEF804462146DB
:10175C00042000F0D7F8042000F0F6F8A042FAD1EB
:10176C00D8F800301802000A81B2E963000C286432
:10177C0001206864344801680029FCD000206864AA
:10178C004FF06022180E314B1B681B6807219847DD
:10179C004FF48060C9F83800032100E002210420D6
:1017AC0000F0B0F8F8692A4900F03F00087047F6DD
:1017BC001800284908801049274800680020286034
:1017CC000860012025490860BDE8F18F1C1300500A
:1017DC00840460425C600C4008220443800128436E
:1017EC00000120430440034000003901482003401D
:1017FC0004000940FFFFFCFC101009409402224336
:10180C0000600C40A83F005056620840B8120050CF
:10181C0000002043FF0F0F005013005000800C40BD
:10182C0008A00C4000A00C40000088688A76680074
:10183C00FFFFFC00273F710041A10C40DCA10C40D4
:10184C0000803F4005A10C4084088C43B40100107B
:10185C000BB00C4070B00C402C200940940460423A
:10186C0038B504460D4600F0A3FB401E8041C00F66
:10187C001A490A68002AFCD0012D02D0022D02D090
:10188C0003E0247802E0248800E0246801220A6046
:10189C0008B100F091FB204632BD38B500EB410099
:1018AC00102B00F5007402D3103B241D120C04986D
:1018BC00984040EA024500F07BFB401E8041C00F7F
:1018CC0006490A68002AFCD0256001220A6000281B
:1018DC001CBFBDE8314000F06FBB31BD00800C4037
:1018EC0038B51D460818102D144602D3103D801C27
:1018FC00240C0221FFF7B4FF04EA000188B2E8408F
:10190C0032BD000038B50446E0070D4607D5A8B235
:10191C0000900023012200216B48FFF7BEFFA007B7
:10192C0007D5A8B200900123022200216648FFF7D8
:10193C00B4FF600707D5ADB2009502230C2200213D
:10194C006148FFF7AAFF31BD0146042907BF1D23DB
:10195C004FF0C0421C234FF080525B483421FFF7FC
:10196C00BFBF10B5594C2168896801208847584879
:10197C0001688906FCD521690968402088472169DE
:10198C008968402088471128F9D110BD70B50546EB
:10199C0000F08EFB4F4C6168401A4FF47A7148434B
:1019AC00060C00F003FC2169401A48BF4042711933
:1019BC0040F6B932914207D2062805DAA068E168F0
:1019CC00814201D3226852B943494A68D2074FF485
:1019DC00FA6016D40868C0B27D21484308E0081AA2
:1019EC003E494843000C00EB9000904238BF104633
:1019FC00C82801D2C82070BDB0F57A6F88BF4FF4EB
:101A0C007A6070BD10B582B00120009000232E4C7E
:101A1C00012219462046FFF740FF012000900346A3
:101A2C00022200212046FFF738FF00F041FB294934
:101A3C00886013BD80B50120FFF786FF01281AD0FE
:101A4C000023012234212048FFF74AFFA0B124488B
:101A5C000068804700F02CFB1E498B680A68C86040
:101A6C00A2EB9202C01A1D4B5843000C0860904226
:101A7C0038BF10460860012002BD10B582B00020AE
:101A8C0000900146104C002301222046FFF705FF71
:101A9C00002000900146012302222046FFF7FDFEA4
:101AAC001C234FF0805234212046FFF719FF10B150
:101ABC000B4800688047074C00F0FAFA606000F0B1
:101ACC0075FB206113BD000000A00C4090010010BC
:101ADC00141009406C240020AC3F005040420F0011
:101AEC0080000010DFF800F049C10110DFF800F0B1
:101AFC0019C20110DFF800F00DC30110DFF800F07F
:101B0C0081C60110DFF800F095B70110DFF800F086
:101B1C008DC20110DFF800F03DC20110DFF800F0BB
:101B2C0009C30110DFF800F045C00110DFF800F028
:101B3C00D1C70110DFF800F067BE0110DFF800F02C
:101B4C0021B30110DFF800F011C80110DFF800F02C
:101B5C0021C801100C2811D0192814D01D2817D019
:101B6C0020281AD021281DD0252820D02A2823D07F
:101B7C002B2826D02C2829D000207047DFF8E40130
:101B8C00006800687047DFF8DC0100684068704747
:101B9C00DFF8D001006880687047DFF8C801006882
:101BAC00C0687047DFF8BC01006800697047DFF857
:101BBC00B401006840697047DFF8A8010068C0698B
:101BCC007047DFF8A0010068006A7047DFF89401E5
:101BDC000068406A704700B58BB00A2100A8FFF777
:101BEC0089FF0BB000BD00B581B0FEF7ADFDDFF88D
:101BFC007801DFF878110068884218BF00F034F8DB
:101C0C00DFF86C01B0F5B26F03D001B05DF804EBF6
:101C1C002BE001B000BD00B581B00FF22100FFF741
:101C2C006DFFFFF76FFFFFF771FFFFF773FF01B059
:101C3C005DF804EBFFF772BF0000000000B581B047
:101C4C00FEF7E6FCFEF7CCFC01B05DF804EB0320DC
:101C5C00FFF768BF10B504460320FFF763FF20466B
:101C6C00BDE81040FFF762BFFEE7FEE700B581B0AC
:101C7C00FFF760FFDFF8FC00C06801B05DF804EB13
:101C8C00FFF75CBFDFF8F010DFF8F00088617047F9
:101C9C00DFF8EC1001280CBF40F2FF700020086048
:101CAC000020704730B581B0FFF71CFFDFF8D4502F
:101CBC000446E88820B1FFF7BDFE60B10020E88043
:101CCC00FFF784F805461020FEF7D8FF012D0BD145
:101CDC00FFF7A1F808E0052105F13000FEF78CFCB8
:101CEC0005F13000FEF78CFC204601B0BDE8304019
:101CFC00FFF7FCBE10B5012818D1FFF725FE01280F
:101D0C0016D0FFF77FFEDFF87C400120E08004F165
:101D1C003000FEF76DFC052104F13000FEF76CFC81
:101D2C0004F13000FEF76CFC002010BDFFF7A5FE9F
:101D3C00002010BD10B501240E2805D10120FFF79D
:101D4C0003FE012805D003E0DFF83C10405C00B92D
:101D5C000024204610BD00207047FFF7F3BEFFF7AC
:101D6C00F5BE0000F001002098CA01107047282031
:101D7C0090050000780100204401002000040000C0
:101D8C0000000460BC0600205824002000680107F5
:101D9C0001D50420704700F003007047F8B50546E4
:101DAC007748784C0068800705D50820A0717649E3
:101DBC0076480860F1BD00F0F9F9754A1268002107
:101DCC0012F0030F18BF0121520748BF41F0020166
:101DDC000DB141F0040194F90720821A052A02DAA8
:101DEC00A279914259D0A0F10F0200250023002ABC
:101DFC001FD402EB02121312082B28BF07231D4617
:101E0C00072D28BF0625634E06EB850756F825508F
:101E1C007F687E1BF5B24F0744BFC6F307277D19B9
:101E2C008F0744BFC6F307477D19CF0748BF05EBA3
:101E3C001665584E56F82370FEB25FEA417C44BFDB
:101E4C00C7F3072C66445FEA817C44BFC7F3074C99
:101E5C0066445FEAC17C48BF06EB1766A2EB03221F
:101E6C006A434D4B1D681B68A1718032092A92414F
:101E7C002D17C5F108053427D243DBB27D436B43E4
:101E8C0006EBD272B3FBF2F2B2F5803F28BF4FF6ED
:101E9C00FF7200F30700A280E07140480068A1883F
:101EAC00206000201F2904D21F21A18004E04908D2
:101EBC00401CB1F5007FFAD20F39090940EAC10084
:101ECC00314A37490843106000205060F1BD10B50D
:101EDC003448006884B224B300F068F9294991F9B8
:101EEC000720904205DA6FF07F029042B8BF10468F
:101EFC00C8718888844201D28C8010BD274A126830
:101F0C000B68D21A921C202A28BF1F22231A5208AF
:101F1C0023FA02F42018B0F5803F28BF4FF6FF706B
:101F2C00888010BD2048006800B9704710B41F4964
:101F3C008A6802F04063B3F1406F1ED04B689B0778
:101F4C001BD40F4B1C680968C1F303511C310901E8
:101F5C0014F0050F06D088420FD224F0050018604B
:101F6C0010BC7047814208D2100158BF44F00104E4
:101F7C00500158BF44F004041C6010BC70470000B2
:101F8C0000000940A424002030100940FDFDA400ED
:101F9C00242208409C130050B43F005008200940F4
:101FAC0000FFA4803410094028500940AC3F005079
:101FBC00EFF3108072B67047EFF3108062B6704783
:101FCC001B4213D1094236D12AB18446B0FBF2F040
:101FDC0002FB10C2704700F0FDB8FCD300220023B6
:101FEC0070470B000200002100207047904271EBFB
:101FFC00030CF6D370B5B1FA81F4B3FA83F52C1B4C
:10200C00A340C4F1200532FA05F63343A2405FF039
:10201C000046E64002E05B085FEA3202841A71EB8C
:10202C00030524BF204629467641F4D302000B0059
:10203C003000002170BD012ACFD970B5140C20D00E
:10204C00B1FA81F4B2FA82F5C4F120046419B4F146
:10205C002006D6D3B2405FF00044F440002502E0E5
:10206C0052085FEA3303C61A71EB020E24BF3046E6
:10207C00714664416D41F3D302000B00200029002E
:10208C0070BD0C46B1FBF2F102FB11452D0445EA83
:10209C001045B5FBF2F402FB145580B240EA05453D
:1020AC00B5FBF2F002FB105240EA044070BD000098
:1020BC0038B5FFF77DFF06490C684D68401E80411E
:1020CC00C00F18BFFFF778FF280C40EA044032BD60
:1020DC00082009402D480068000C00F00700032878
:1020EC0028BF4FF0FF30704729490968C1F30F3101
:1020FC004BF69A1291424FF0FF3001D100207047FD
:10210C004BF6BE12914201D1012070474BF62032A2
:10211C00914208BF0220704710B41D491D4B0A683C
:10212C001B680968120FDBB2802B28BF0023C1F398
:10213C000F314BF69A14A1424FF0FF300CD1012A0B
:10214C0008D0032A1DD0072A1DD0082A08BF03F186
:10215C00160013E00A2011E04BF6BE14A14206D182
:10216C00002AF7D0022A09D103F1140006E04BF63D
:10217C002034A14204BF002A03F10A0010BC40B273
:10218C0070471420FAE71520F8E70000941200506D
:10219C0018130050A010005080B5FFF7A5FF18B918
:1021AC00FFF7BAFF162800DAFEE701BD0748084A18
:1021BC00816812780068C90352B2A0F54070C91347
:1021CC005043A1EB2010803000127047285009407A
:1021DC000C13005070470000DFF800F0D9C101105B
:1021EC00DFF800F0ADB50110DFF800F019AE01100A
:1021FC00DFF800F041AC0110DFF800F0E5C1011090
:10220C00DFF800F0CDA00110DFF800F085C201105E
:10221C00DFF800F081C20110DFF800F055C10110A9
:10222C00DFF800F043C20110DFF800F079AB0110C9
:10223C00DFF800F0D9B60110DFF800F085C101100D
:10224C00DFF800F0EDB30110DFF800F0C1C10110B0
:10225C0020B108232C220021FFF748B8704720B189
:10226C0008233C220021FFF7B7BF704780B5FEF76B
:10227C00B7F9ADF80000FFF735FCADF80200009897
:10228C0002BD01B5BDF80200FFF730FCBDF800003F
:10229C00BDE80240FEF7A8B938B5DFF86448DFF8AE
:1022AC0064580020A4F86C0AE820208040F68410C2
:1022BC00A4F8E80004F1E8006860002000F003F8DE
:1022CC00A8606C6031BDF8B500240025061D16F021
:1022DC0003001CBF311D0E1AFFF7C8FFDFF82418CE
:1022EC00B6B20860112EB4BF4F688F6839880B04E2
:1022FC0003D581F40041002519E0A5B123883A8863
:10230C00134423809BB2B34211D327461946B7B16D
:10231C00891B89B20429A7BFF15346F400413988BF
:10232C0041F4004109E0B142F1DA01253C46CF19F4
:10233C0039880029DBD1002701E027F8041BFFF7BF
:10234C00A0FF3846F2BD10B50446FFF78FFFDFF84B
:10235C00B417221F086013885B045B0C13804B6856
:10236C009A4238BF4A60BDE810408AE738B5044647
:10237C00FFF77CFF00210C23DFF88C2703FB0125E2
:10238C00AA6C4AB1944204D1FFF77BFF05F14800D7
:10239C0032BD491C0329EFD3FFF773FF002032BD78
:1023AC0070B50546FFF762FF044600200C22DFF8EB
:1023BC00581702FB001101F14806316849B9002099
:1023CC00B06035600022FFF70BFF706018B900F0A9
:1023DC0069FC8D4204D12046FFF753FF304670BD97
:1023EC00401C0328E3D32046FFF74BFF002070BDB1
:1023FC0038B50446FFF73AFF0025DFF80C170C221E
:10240C0002FB0512128842B1944203D1FFF739FF47
:10241C00A8B232BD6D1C062DF1D3FFF732FFFF20A1
:10242C0032BD10B504462088FFF7E2FFFF2800D12B
:10243C0069E1DFF8D4160C2202FB00108168080059
:10244C0002D16FF0010010BD2046BDE810400847D6
:10245C0002460FF2A070104710B500200C21DFF8D7
:10246C00A826002401FB0023401C03289C641C6547
:10247C00F8D30020034601FB0024401C06282380CF
:10248C00F9D3082010800FF255709060BDE8104011
:10249C0002E770B590B0FEF7A3F8044600A8FFF76A
:1024AC00DEFE0520069000224FF44870089000A92B
:1024BC004FF201000490DFF854060590DFF8500647
:1024CC00FFF792FE050006D0FFF7D0FE0646284621
:1024DC00FFF766FF08B900F0E5FB3046FFF7D1FEC9
:1024EC002046FEF781F810B070BD70B500F0E4F82E
:1024FC00FFF756FF0546FFF7B9FEA2880021DFF86B
:10250C0008360C2606FB01331E883EB91A805D6026
:10251C00A2689A60A1816968216165E7B24204D121
:10252C00FFF7AFFE6FF0020070BD491C0629E6D321
:10253C0000F0B8FB00BF38B500F0BEF8FFF730FF75
:10254C00050016D0FFF792FE0021DFF8BC250C2306
:10255C0003FB012213884BB94FF6F87313805560B7
:10256C0000239360A1806968A16015E7491C0629C6
:10257C00EBD300F097FB00BF10B5044660680C303D
:10258C0080B2FFF7A0FE00B91AE06168018100215A
:10259C000160FF2181720C30A060002010BD80B55D
:1025AC0040680C3811E080B28DE610B504466068C6
:1025BC0080B2FFF788FEA06000B901E0002010BDDA
:1025CC006FF0030010BD80B54068FFF7BCFE002023
:1025DC0002BD38B504460D46FFF748FE002145F80C
:1025EC000C1C216811B9256006E0114651F80C2C21
:1025FC00002AFAD141F80C5CBDE8324041E62DE9E5
:10260C00F04104466FF00206E068A0F10C05E0888A
:10261C000628BCBFA08806280BDAFFF727FEE18846
:10262C00DFF8E4840C2707FB0181496819B9FFF72F
:10263C0028FE304617E0FFF724FEA0882871E088BA
:10264C006871207AA871E088E16807FB0080406817
:10265C000830FFF7BEFFE08807FB00804068406849
:10266C00FFF7C6FD0020BDE8F08170B500F024F83E
:10267C00FFF77CFE10B96FF0040070BD00F1080686
:10268C00FFF7F4FD3168002541B10D46A5F10C01B1
:10269C000A68326000220A60FF228A72FFF7F1FD9D
:1026AC00A560A5F10C010DB9022070BD0879A080C0
:1026BC004879E080002070BD0446FFF79DBD0628D8
:1026CC000BDADFF844240C2303FB002000880028DD
:1026DC001CBF4FF6F872904202D14FF0FF3070479A
:1026EC00088000207047811D8088E8E710B50446FB
:1026FC00E088FFF77DFEFF2800D104E0E080204653
:10270C00BDE810407BE74FF0FF3010BD3EB50446EE
:10271C00FFF7ABFF050017D1A08800A9FFF7CFFF8B
:10272C0078B1A06802900821ADF8041001A803212B
:10273C00ADF80610DFF8DC13896888476FF00500E8
:10274C003EBDBDF80000A08028463EBD10B5DFF8A8
:10275C00C82312680C464FF47A71A1FB00010023C8
:10276C00FFF72EFC002902D8B0F1004F02D36FF016
:10277C00020010BD2060002010BD38B5FFF79CFF93
:10278C00FFF7F4FD0546FDF767FF002818BF012889
:10279C0000D015B96FF0040032BD606840B90090EC
:1027AC0000996868FFF72CFD401E8041C00F32BDB8
:1027BC0010F1010F08BF4FF0FF30F0D000F050F9CE
:1027CC000028EDD032BD80B54068FFF711FD002028
:1027DC0002BD00F067FA00BF80B54068FFF714FD3A
:1027EC00002002BD80B54068FFF712FD002002BD3D
:1027FC0080B5FFF711FDFFF713FD002002BD80B57A
:10280C00FDF7EEFEFFF76EF9002002BD10B58CB09F
:10281C00044600A8FFF71CFDE02000F013F808B9EF
:10282C0000F040FA0BE010B58CB0044600A8FFF79E
:10283C000FFDE06800F006F808B900F033FA00204C
:10284C000CB010BD08900023A168606800AAFFF7C7
:10285C00EBBC10B50446FFF7EBFC6060002010BD2C
:10286C000146886849680847F0B507468BB0BC68D4
:10287C00A84D6CBB0C20FFF726FD04006FF003067F
:10288C001ED008232422002101A8FFF7D5FC00202C
:10289C00ADF8140006900794002379689F4801AAAC
:1028AC00FFF7CEFC206068B90820ADF800000C20C2
:1028BC00ADF8020000A8A96888472046FFF743FD41
:1028CC00304618E0F86860603869A060BC600AE0C7
:1028DC002868804706462068FDF78AFE3869A060A4
:1028EC0030466968884779682068FDF785FE20685E
:1028FC00FDF786FE00200BB0F0BD10B5044682B08B
:10290C00606800F0ADF820B9009860602046FFF7D1
:10291C00ABFF16BD80B5406810B96FF0020002BD68
:10292C000068FDF765FE002002BD7B490968416027
:10293C000020704750B50446774802686FF0004697
:10294C00A6FB020100234FF47A72FFF739FB002932
:10295C0002D8B0F1004F00D330466060002050BD6B
:10296C002DE9F04186B00646FFF746FCFFF7FEFC6A
:10297C000446002002900025FDF76EFE002818BFCB
:10298C00012800D014B96FF0040066E0706820B123
:10299C0010F1010F03D14FF0FF30009004E000F074
:1029AC005FF85FEA000857D1FFF742FC00994FF03F
:1029BC0001080F1800E0009000996068FFF720FCF8
:1029CC0080B303A8FFF751FE5FEA00081AD1BDF8E7
:1029DC00100001A9FFF773FE80B9059ABDF812101B
:1029EC00BDF80400B368984740B1BDF80400B0814D
:1029FC00BDF81200F0810598306113E0059902A82A
:102A0C00FFF7E7FD00986D1C10F1010F18BF0028AF
:102A1C004FF00108D0D0FFF70BFC381A02D0009908
:102A2C008142C8D2029EFFF721FC04F1080756B17F
:102A3C00314600E0114651F80C2C002AFAD13A68C4
:102A4C0041F80C2C3E60FFF71CFC002D03E0606885
:102A5C00FFF7CEFB6D1EFAD1404606B0BDE8F08103
:102A6C0000A973E6F8B5FFF727FE0546FDF7F4FD60
:102A7C00002818BF01286FF0040613D0FFF7F6FBEF
:102A8C000021214A0C234B439F5A4FB19B185B6882
:102A9C001B68AB4201D1A18042E0491C0629F1D34D
:102AAC00FFF7EFFB3046F2BDF8B50446FDF7D4FD59
:102ABC00002818BF012802D16FF00400F2BDFFF707
:102ACC009BFB0546FFF7D2FBA7880F4A00210C237E
:102ADC004B439E5A6EB1BE4208D199184968096899
:102AEC00A9420CBF01210021A16019E0491C062953
:102AFC00EDD3FFF7C6FB4FF0FF30F2BD0000000036
:102B0C00680A00209024002034200020280900208E
:102B1C005D240000DC0900202C6000006D28000002
:102B2C00FFF7AFFB0020F2BD70B504463C20FFF769
:102B3C00CAFB05006FF0030611D0FFF790FB207A5B
:102B4C00A8610022608928622946E06828616068D3
:102B5C00FFF74AFB04462846FFF7F5FB0CB9304655
:102B6C0070BD002070BD70B504462420FFF7ABFB90
:102B7C0005006FF0030613D0082324220021FFF771
:102B8C0063FB2079012808BF2876A068002229461B
:102B9C00FFF726FBE0602846FFF7D5FBE06808B995
:102BAC00304670BD002070BD10B5044682B0A068E0
:102BBC0040B9009000996068FFF722FB401E8041ED
:102BCC00C00F16BD10F1010F08BF4FF0FF30F0D051
:102BDC00FFF746FF0028EDD016BD000041882929DB
:102BEC0002D36FF0010070470FF2140252F821105B
:102BFC00084700002F240000792200008F220000DB
:102C0C00F72400004325000085250000AB250000BB
:102C1C00B7250000D32500000B2600007726000006
:102C2C00F92600001927000087270000D327000091
:102C3C00DF270000E5270000F1270000FD2700003A
:102C4C000B280000192800005F280000072900004D
:102C5C003729000041290000F3260000B15900007B
:102C6C00795A00006D290000712A000075280000B7
:102C7C0021290000135A00004B5A00005F5A000033
:102C8C00B52A0000B15A0000CD5A0000352B0000C7
:102C9C00732B0000B52B0000C35A0000DB5A000058
:102CAC0033280000012000F001B8000020210903A6
:102CBC0026311820ABBEF9E7DFF800F025B1011082
:102CCC002DE9F84CDFF83C790C46002640F2013B2C
:102CDC0092467B78398A97F804C097F803E0B0EBFA
:102CEC000B0540F67B4232D06D1E37D06D1E3DD0A9
:102CFC00AD1E41D06D1E00F07D806D1E00F08080F9
:102D0C006D1E00F08D806D1E00F09D806D1E00F01C
:102D1C00A2806D1E00F0A7806D1E00F0AD806D1EB0
:102D2C0000F0B280ED1E00F0B7806D1E00F0BC808C
:102D3C006D1E00F0C1806D1E00F0C6806D1E00F08F
:102D4C00CB806D1F00F0D380AD1E2ED0E7E0102C91
:102D5C0005D11022514607F1A4008AE0102C40F056
:102D6C00DC801022514607F1B40082E0042C6BD1B8
:102D7C00DAF80000F862DDE0012C65D1BCF1010F3E
:102D8C0036D09AF80000F870BEF1000F06D000287B
:102D9C00F1D1022B1BD0052BEDD118E00028EAD085
:102DAC00012B21D0042B1DD11EE0012C4CD1BEF1E6
:102DBC00010F1DD09AF800003871BCF1000F0AD039
:102DCC00002807D1032B1CBF072B052B02D1C8B23F
:102DDC0000F08CFEAEE00028FCD0012B1CBF042BB5
:102DEC00062B01D0052B02D1012000F004FCA1E040
:102DFC0012269FE0022C27D1BAF80000B88299E085
:102E0C00202C0EDA07F1CC061F21304601F07AF89F
:102E1C0000F097F8388A7C713346224601210EE087
:102E2C00202C7ADA07F1EC061F21304601F06AF803
:102E3C0000F087F8388ABC71334622460021C0B2B4
:102E4C0000F037FE73E0012C67D19AF800000528DA
:102E5C0063DAF8716EE0012C5FD19AF80000042857
:102E6C005BDA387266E0062C57D10622514607F51C
:102E7C00867001F04BF85DE0012C4ED19AF8000001
:102E8C0008284ADA787255E0012C46D19AF80000ED
:102E9C00042842DAB8724DE0012C3ED19AF80000B9
:102EAC0002283ADAF87245E000F047F835D1811F74
:102EBC00914232D238833DE000F03FF82DD1811F92
:102ECC0091422AD2788335E000F037F825D1B0F55D
:102EDC00FA7F22DAB8832DE000F02FF81DD1A0F193
:102EEC000A0140F67742914217D2F88322E0012C76
:102EFC0004BF9AF8000001280FD107F1800001F0FF
:102F0C009AF840B900F01CFB060013D107F15C00E5
:102F1C0001F098F80EE016260CE018260AE0272897
:102F2C0007DA022C05D1BAF8001000F0F2FD0646C3
:102F3C0000E002263046BDE8F28CBAF80000022C04
:102F4C00704722465146304600F0E0BF38B50024A9
:102F5C004FF440730D46C21ADFF8A81636D0521E35
:102F6C0036D0521E37D0521E38D0521E39D0521E77
:102F7C003AD0521E3CD0521E3CD0521E3DD0521E56
:102F8C003ED0521E3ED0521E3ED0521E40D0521E3B
:102F9C0040D0521E40D0921E40D0521E40D0521EE5
:102FAC0040D0521E40D0521E40D0521E40D0521E15
:102FBC0045D0521E45D0521E45D0921E47D0521EAF
:102FCC0014D0521E41D0521E43D045E0887841E0C7
:102FDC001022A4312FE01022B4312CE0C86A2860F2
:102FEC0041E00622C43126E0C87833E0087931E0AC
:102FFC00888A35E04A79CC311DE08A79EC311AE0C7
:10300C00C87927E0087A25E0062201F5867112E0DE
:10301C00487A1FE0887A1DE0C88A21E0C87A1FE050
:10302C00088B1DE0488B1BE0888B19E0C88B17E0E0
:10303C00062201F58A71284600F068FF13E0088C1F
:10304C000EE0488C0CE0888C0AE0087B02E04878A3
:10305C0000E0487B287006E0272803DA00F075FDB5
:10306C00288000E00224204632BD1CB5DFF89445D0
:10307C00617889B900B1206304F12C00019004F14E
:10308C00B400009004F1A403208AA1780022C0B2FD
:10309C0000F0CAFC002016BD112016BDDFF8640537
:1030AC004178062918BF072905D1C18A008A132245
:1030BC00C0B200F0DFBC1220704700B58FB00823FF
:1030CC003C22002100A8FFF787F8DFF83C0500F14F
:1030DC005001079100234FF4DC71089100AA0321E1
:1030EC0006910FF2D101FFF7E7FD0FB000BD70B5EF
:1030FC0084B000F016F90120DFF81015DFF8044554
:10310C0009680FF20D55ADF8020000A88847BDF80C
:10311C00040020820298A062002060704FF6FF70BD
:10312C00E08200F030FD2070002301200190294640
:10313C0000200090024604F1380000F041FF02200C
:10314C0000F030F804F15C0000F03AFF042000F0CD
:10315C0029F804F1800000F033FF0420A07004F182
:10316C00A40200200146034605462BC204F1B40517
:10317C0006464BC5E062E0712072A17207206072B6
:10318C00103A1021022000F073FE103D2A46102147
:10319C00032000F06DFE042104F12C02084600F01F
:1031AC0067FE7FBD01902946002000900346024631
:1031BC0070470000FEB5FFF79AFFDFF84854DFF8C0
:1031CC004C4405F1800700F0ACF80A20ADF8020081
:1031DC004FF0FF30019000A82168884700284BD1A0
:1031EC0000F09FF80920ADF8020000A8216888477C
:1031FC00BDF80610029E00283ED1BDF80400102830
:10320C0004BF288A81422DD130884FF6FF71884245
:10321C0009D17088400425D505F12C020421042025
:10322C0000F03BFE1EE03078A22805D0D02804BF69
:10323C00304600F07AF815E07079132812D13089F5
:10324C00012804BFA87B022805D1384600F0FAFEFD
:10325C00FFF724FF06E0052000F077FC0146384616
:10326C0000F0D4FE46B100F05CF80320ADF802008B
:10327C00019600A821688847688AC10730D54FF6A7
:10328C00FE7108406882E9782879014328D018B18A
:10329C0003208DF800000CE0E8798DF80000062280
:1032AC00287A8DF8010005F586710DF1020000F009
:1032BC002DFE687A8DF8080000A9A87A8DF809000F
:1032CC00288AC0B200F0F1FB00281FBF08206870EC
:1032DC00286B002804D0016808001CBF0820884710
:1032EC00688A810706D54FF6FD7108406882002078
:1032FC0000F026F9688A41070AD54FF6FB710840A1
:10330C006882A87B012804D0022808BFFFF7C6FEFC
:10331C0059E70090EB8BAA8B698B288B00F044F952
:10332C0051E70820ADF800007047F8B50546B54CDC
:10333C00A878010004F58A7704F1800612D00228DF
:10334C003BD0032818BF04285BD0052800F08180EF
:10335C00062800F0AB80072800F0CD800F2800F085
:10336C00E980F1BD6878D8B904F1A40210210220DB
:10337C0000F093FD04F1B4021021032000F08DFD48
:10338C000622E91C04F1C40000F0C0FD01206070AD
:10339C0004F1CC03208A62790121C0B200F089FBD0
:1033AC0008B108206070206B30B10168080003D0B0
:1033BC006078BDE8F4400847F1BD6878E8B9E87872
:1033CC0048B1208AA27904F1EC030021C0B200F0CC
:1033DC0070FB687011E06078022818BF07280CD0C9
:1033EC00062802D12079012807D104F1380000F019
:1033FC0022FE10B9012000F0FEF868780028DBD01E
:10340C00CFE769780029CCD103280AD16078062847
:10341C0008BF0720C6D0E07800280CBF032002208C
:10342C00C0E7A18AE078002907D0227910430AD09E
:10343C0004F1380000F0EAFD05E0012807BF002088
:10344C00E070002020716078072814BF042006204B
:10345C00A8E7687820BB0622291D384600F056FDE7
:10346C006889E08206206070E8892084288A60845C
:10347C00688AA084E8782073E07A012809D11F209B
:10348C0000F063FB4FF47A71414304F15C0000F0EF
:10349C00BDFD6A89E8780423291D00F0D5F982E77F
:1034AC003128B0D10020E07004207BE7A88800F020
:1034BC00E2F90621384600F025FD002020846084C6
:1034CC00A084A879607304F15C0000F0BBFD304669
:1034DC0000F0B8FD4FF6FF70E082207908B10320B0
:1034EC0060E7A87908280CBF052004206070012033
:1034FC0000F081F857E7304600F0A4FD687800280A
:10350C000AD1E8882084288960846889A08404F121
:10351C005C0000F090FD00287FF44EAF636B002B35
:10352C003FF44AAF1B68A28C618C208C01B0BDE8C3
:10353C00F0401847A888BDE8F440052100F0DBBA3C
:10354C00FEB5304D298B0446288C884224BF698BEC
:10355C00814207D3688CA98B884202BFA88CE98B67
:10356C0088421ED0052000F0F0FA0646E88AADF835
:10357C000000288BADF80200688BADF80400A88B16
:10358C00ADF80600E88BADF8080000A800F06DFA65
:10359C00070007D1AC73314605F1800000F036FD11
:1035AC0000E018273846FEBD70B5164C6578062D20
:1035BC0001D0142070BD40F67A45861FAE423CBF48
:1035CC008E1FAE4215D2B2F5FA7F12DAA3F10A05BC
:1035DC0040F67646B5420CD220836183A283E38306
:1035EC000498FFF7ADFF04F15C0000F02BFD002008
:1035FC0070BD182070BD03494A8A10434882886AFE
:10360C00FEF7F6BD5C0400202C1E0020E40900200F
:10361C00F1E70000E0B50821ADF80010019002219F
:10362C0000F00FF808B100200EBD02980EBD00B5D9
:10363C0083B00821ADF800100190032100F001F8CF
:10364C0007BDADF8021000A8DFF87413096808472D
:10365C001FB5ADF80610ADF804000824DFF86013B0
:10366C008DF808200393ADF80040ADF8024000A897
:10367C000968884704B010BD30B585B014460822DF
:10368C000291ADF800201922DFF83413096801907B
:10369C00ADF802201D4600A8884714B1BDF80C10E7
:1036AC00218015B1BDF80E102980089A049911607B
:1036BC0005B030BD00B583B00820ADF800001A206D
:1036CC0000F014F810B9BDF804000EBDFF200EBDBB
:1036DC00E0B5ADF80000ADF80610002000F006F8DB
:1036EC0010B99DF808000EBDFF200EBDDFF8D012FA
:1036FC000968ADF8020000A8084750B110F1040F9A
:10370C0001D10420704710F1030F01D10220704742
:10371C00012070478123037042EAC111002341F458
:10372C007C41C370818070478223037081800023A9
:10373C00C370827170473EB504460820ADF8000096
:10374C000D462020ADF802001020DFF87412096835
:10375C00ADF8040000A8884720B9029810B16FF0AA
:10376C0004003EBD00950023002221464FF0FF309F
:10377C00FFF782FF3EBD10B51446CA78012A82B00D
:10378C0003D18A88DFF8E4341A8000F010F858B9B5
:10379C00009000A92046FFF7CEFF28B90098447886
:1037AC00FFF745FF204616BDFFF7A7FF16BD0B46DA
:1037BC00022210214CE738B51C461546FFF7F7FFDF
:1037CC00B8B9009000A92846FFF7B5FF88B9009852
:1037DC004578002D04BFC079A04205D100988168BE
:1037EC000498224600F092FB0098FFF720FF284631
:1037FC0032BDFFF782FF32BDF8B500F056FA00F08B
:10380C00BFF907000DD032462946FFF78DFF00F0B7
:10381C0048F93872FFF74EFF3B4601B0BDE8F04067
:10382C003AE0F1BD10220121E6E738B500F0E1F9EC
:10383C00050004D0042200F032F8AC6026E031BD63
:10384C003C81BD72FE6035E72DE9F04100F05AF97C
:10385C0007000FD0142200F022F83C72FD603E826B
:10386C0087F81280FFF726FF3946BDE8F041DFF8F4
:10387C00002480E72FE038B500F033F8050001D0C4
:10388C00152200E031BD00F00AF82C81FFF712FF81
:10389C002B4601B0BDE8304002221021D8E60121B0
:1038AC0042E70022042176E02DE9F04100F02AF9EC
:1038BC00070010D002220421FFF736FFBC60BD8147
:1038CC00BE73C7F81080FFF7F5FE3946BDE8F0412E
:1038DC00DFF8A0234FE70420BDE8F081102202217D
:1038EC008AE704460A2095E602211DE7F8B500F0A8
:1038FC007AF907000AD01522FFF7F6FFFFF7A0FFB1
:10390C003946BDE8F840DFF8702334E70420F2BDF7
:10391C00002203213FE000B583B00FF2490301936D
:10392C0006230093032300F04DF80EBD1078802879
:10393C0002BF508840F27F61884208D1908898423B
:10394C0002BF91790098814201D10120704700207B
:10395C00704710B582B00624FFE70094FFF7E6FF2E
:10396C0016BD00000323F4E71078802802BF5088AE
:10397C0040F27F6188420CD19088032818BF04283C
:10398C0007D1907900281CBF1028112801D10120E3
:10399C00704700207047F8B500F013FA07000CD000
:1039AC0032462946FFF7C0FEBC60FFF783FE39465E
:1039BC00BDE8F840DFF8C422DDE60420F2BD0000CB
:1039CC00E40900202DE9F04100F027F807000AD0A7
:1039DC00069A4146FFF7A8FE3C817D81FFF732FF36
:1039EC00079A00F015BA76E74246032192E670B5C5
:1039FC0082B000F05AF9FFF75DFE1B210091C3B2B3
:103A0C0032462946204600F0FEF876BD10B582B04D
:103A1C001D24009400F0F7F816BD04460D4616461A
:103A2C0098461020FFF7F6BD2DE9F04180460D4673
:103A3C0016461F461820FFF7EDFD040014D0002297
:103A4C0000F05DF800F00BFA20726572A672E76068
:103A5C000698206107986061FFF72CFE2146BDE8AF
:103A6C00F0410FF2BD2286E635E70FF2B9231122A1
:103A7C0000211EE1F8B500F0C0F807000FD00A22B3
:103A8C0000F03DF800F00DF838727D813E73FFF7C1
:103A9C0011FE3946BDE8F8400FF28D226BE604208A
:103AAC00F2BD21465020FFF713BE0FF281230622F0
:103ABC0010E12DE9F04180460D4616461F461020B8
:103ACC00FFF7A8FD040010D0072200F018F800F052
:103ADC00C6F920726572A672E760FFF7EBFD21460E
:103AEC00BDE8F0410FF2492245E6F4E60FF245231A
:103AFC0008220021EEE00FF241231022C4E0042141
:103B0C00FFF708BE04460D46164698461420FFF7EC
:103B1C0081BD70B500F014F806000BD03022FFF711
:103B2C00EEFF00F009F83146BDE870400FF20D22AF
:103B3C00FFF721BE042070BD34817581FFF7BABD3B
:103B4C0004460D460C20FFF765BD30B583B0044626
:103B5C000020ADF8040000F013F805000DD0312260
:103B6C00FFF7CDFF2C81FFF7A5FD01A900910223E2
:103B7C000FF2CD122946FFF71EFEBDF804003EBD24
:103B8C000A20FFF747BD1CB500208DF8040000F09B
:103B9C0012F804000CD01222FFF781FEFFF78AFD09
:103BAC0001A9009101230FF29D122146FFF703FE9C
:103BBC009DF8040016BD0820FFF72CBDF8B500F0E9
:103BCC0012F807000DD03622FFF799FF3C817D815A
:103BDC00FFF738FE3946BDE8F8400FF27912FFF7CF
:103BEC00CABD0420F2BD04460D4616461020FFF750
:103BFC0011BD04460C20FFF70DBD04460D461646BC
:103C0C000E20FFF707BD2DE9F041FFF77BFF070002
:103C1C0011D0069AFFF7E9FE3C813E74FD6000F07E
:103C2C001EF97874FFF746FD3946BDE8F0410FF2F6
:103C3C005912FFF7A0BDFFF74EBE38B51446104A17
:103C4C0015682A0006D0009302460B462146012037
:103C5C00A84732BD002032BD0A4A13681A0003D0AF
:103C6C000A4601460120184770470000580A0020F8
:103C7C00B53D0000C53D0000BB3D0000753900009E
:103C8C00AC240020B02400202DE9F04100F00DF808
:103C9C0098460C20FFF7BEFC070004D000F016F885
:103CAC003C81BD72B1E0FFF716BE04460D461646C8
:103CBC0070472DE9F041FFF7B0FE070004D000F08B
:103CCC0005F8BC60FD60A0E0FFF705BE324604219C
:103CDC00FFF720BD2DE9F041FFF79FFE070006D04E
:103CEC00FFF7F4FFFFF7DDFE3872FD608DE0FFF7A4
:103CFC00F2BD1078802802BF508840F27F61884264
:103D0C000CD190884FF680710140B1F57E4F04BF05
:103D1C0000F07F00984201D10120704700207047CD
:103D2C000023E6E71123E4E70A23E2E70623E0E7B2
:103D3C000723DEE70823DCE71023DAE73023D8E794
:103D4C003123D6E780B5122300930123FFF7EEFD54
:103D5C0002BD00003623CCE71078802802BF5088C3
:103D6C0040F27F6188420DD190884FF680710140FE
:103D7C004FF68052914204BF00F07F00984201D16F
:103D8C00012070470020704770B5FFF78EFF1D2390
:103D9C00FFF7E2FF30B9324629462046BDE87040B5
:103DAC001B23D9E7012070BD80B51423CCE780B567
:103DBC00152300930223C9E780B502230093042343
:103DCC00C4E704460D4616460C20FFF723BC2DE92C
:103DDC00F041FFF76AFF98460E20FFF71BFC070027
:103DEC0009D000F00AF83D817E81A7F80C80FFF71E
:103DFC0061FC069A0CE0FFF76EBD81203870012043
:103E0C00F870BC8070473D81FE60FFF753FC424662
:103E1C003946BDE8F041FFF7AEBC1078802802BFF0
:103E2C00508840F27F61884204BF9088984201D14B
:103E3C00012070470020704738B50446154600F045
:103E4C000FF80FF225010091C2B22B4621464FF616
:103E5C001840FFF7BCFF32BD3C817D81BE814146DD
:103E6C005020FFF735BC00004FF61843D5E7000093
:103E7C00F8B5FFF7B8FE07000DD0012200F022F8CC
:103E8C003C727D72FFF7DEFC3946BDE8F8400FF25C
:103E9C006D02FFF770BC0420F2BDF8B5FFF7A3FE6E
:103EAC0007000DD0022200F00DF83C727D72FFF776
:103EBC00C9FC3946BDE8F8400FF24502FFF75BBC80
:103ECC000420F2BD0521FFF725BC1078802802BF25
:103EDC00508840F27F6188420DD190884FF68071F6
:103EEC0001404FF68062914204BF00F07F0098427F
:103EFC0001D1012070470020704700000123E4E746
:103F0C000223E2E7002200F013B9000062B38B0732
:103F1C0008D0521E11F8013B00F8013B00F0248040
:103F2C008B07F6D1830740F0208000BF103A07D3EF
:103F3C0030B4B1E83810103AA0E83810F9D230BCDF
:103F4C00530724BFB1E80810A0E8081044BF51F88B
:103F5C00043B40F8043BD20724BF31F8022B20F875
:103F6C00022B44BF0B7803707047083A07D3B1E8B3
:103F7C000810083A40F8043B40F804CBF7D253073A
:103F8C00E4E70000DFF800F079B50110DFF800F08D
:103F9C00F5B80110DFF800F0B5C10110DFF800F042
:103FAC00A9C1011000B583B00821ADF80010019033
:103FBC000521ADF8021000A855490968884707BDCE
:103FCC00F0B589B004460D4616461F460823242238
:103FDC00002100A8FEF730F90F984E4909680690A9
:103FEC0000AB4FF47A70B0FBF1F101FB07F00590D8
:103FFC0001FB06F20E98ADF8100029462046FFF79B
:10400C00C1FF204609B0F0BDFCF7FABA38B504463A
:10401C000D46FCF78AFB10B12046FCF7E9FA00F0DC
:10402C0013F800FB05F12046FCF7E6FA2046BDE844
:10403C003240FCF7E5BA80B5FCF777FB00B1012004
:10404C00C0B202BDFCF7D4BA324909684FF47A7099
:10405C00B0FBF1F0704710B504460021FFF796FF56
:10406C00204610BD70B584B004460820ADF80000A1
:10407C000D460420ADF802000C202549096801907A
:10408C00164600A8884758B9029949B18E60204657
:10409C00FFF780FF15B12846FEF7AAF8012003E0D0
:1040AC003046FFF77FFF002004B070BD10B504460A
:1040BC00FCF7AAFA38B92046FFF770FF8468FFF7BF
:1040CC0071FF204610BD002010BD30B585B00446F0
:1040DC0000A80FF248011422FFF728FF0E483021E8
:1040EC000170A21D782141700623811C00AC12F8CE
:1040FC00015D2D095B1E2D5D01F8015B157805F046
:10410C000F052D5D01F8015BF1D105B030BD00004C
:10411C00E40900202C600000802400203031323370
:10412C0034353637383941424344454600000000A7
:10413C00401810F0030308D0C91A1FD3DB0748BF7F
:10414C0000F8012D28BF20F8022D130030B41446BE
:10415C001546103928BF20E93C00FAD8490728BF7A
:10416C0020E90C0048BF40F8042D890028BF20F836
:10417C00022D48BF00F8012D30BC7047C91818BF7C
:10418C0000F8012DCB0728BF00F8012D7047000067
:10419C00DFF87C24136800290CBF23EA00001843C5
:1041AC0010607047002914BFDFF86814DFF868143A
:1041BC000860704770B588B000AB0024B0FBF2F516
:1041CC0002FB1500C0B20A28B4BF302637263018BF
:1041DC001870280004D0641C5B1CE4B2202CEDDBAE
:1041EC000020401C13F8012901F8012BC0B28442B5
:1041FC00F7D20020087008B070BD2DE9F04389B0EB
:10420C0006460D46144603A80A21FFF77BFE00A8BC
:10421C000A21FFF777FE06A80A21FFF773FE00209C
:10422C000A2C287042A75ED142F21070B6FBF0F057
:10423C0042F210710A46B0FBF2F201FB106401FB72
:10424C001208DFF8D803B6FBF0F91FFA89F9B9F1B7
:10425C00000FA4B21FFA88F804D00A2206A9484617
:10426C00FFF7A8FFB8F1000F04D00A2200A94046BE
:10427C00FFF7A0FF24B10A2203A92046FFF79AFFFB
:10428C00B9F1000F0ED006A9284600F00BFB002652
:10429C0002E000F054F8761C00A800F025FB00F0BA
:1042AC0049F8F6D300A9284600F039FB58EA09086A
:1042BC000AD0002602E000F042F8761C03A800F0B9
:1042CC0013FB00F037F8F6D303A9284600F027FBC0
:1042DC0054EA080003D1387828707878687028463A
:1042EC0009B0BDE8F083102CFAD15FEA1648B4B2DD
:1042FC0004D0102200A94046FFF75CFF24B1102225
:10430C0003A92046FFF756FFB8F1000FDCD000A937
:10431C00284600F0C7FA002602E000F010F8761CE0
:10432C0003A800F0E1FA00F005F8F6D3CCE70000A2
:10433C0030000000C0F10400F6B2864270473946E6
:10434C00284600F0ECBA002806E04FF4E1610A467A
:10435C00511E002AFBD1401EF7D1704738B50446D8
:10436C0001214FF08060FFF71DFF0825002100F0B0
:10437C0028F8200654BF002101214FF48060FFF77C
:10438C0011FF00F01DF864006D1EEFD131BD38B582
:10439C00044600214FF08060FFF704FF0825002140
:1043AC0000F00FF8200654BF002101214FF480606B
:1043BC00FFF7F8FE00F004F864006D1EEFD131BD7C
:1043CC0001214FF40070EDE610B50446A1F1500048
:1043DC0000F033F8200940F01000FFF7D8FF04F08C
:1043EC000F00BDE8104040F00100D0E770B5044666
:1043FC000025A5F1500000F020F80120FFF7C7FFC1
:10440C0000F01DF880262046FFF7A8FF761EFAD193
:10441C006D1C082DEDDB70BD38B550380C4600F026
:10442C000CF80120FFF7B3FF00F009F880252046B7
:10443C00FFF794FF6D1EFAD131BDC0B2A7E7102073
:10444C00A5E780B501214FF40070FFF7A1FE012113
:10445C004FF48060FFF79CFE01211020FFF798FEBF
:10446C0001214FF08060FFF793FEFFF7A9FF0021B9
:10447C001020FFF797FEFA20FFF765FF01211020AF
:10448C00FFF790FEAE20FFF782FF0020FFF77FFFC3
:10449C00FFF7D5FF4020FFF77AFF8120FFF777FF6A
:1044AC00CF20FFF774FFA120FFF771FFC820FFF7A3
:1044BC006EFFA620FFF76BFFA820FFF768FF3F20D9
:1044CC00FFF765FFD320FFF762FF0020FFF75FFFC8
:1044DC00D520FFF75CFF8020FFF759FFD920FFF7AD
:1044EC0056FFF120FFF753FFDA20FFF750FF1220A1
:1044FC00FFF74DFFDB20FFF74AFF4020FFF747FF98
:10450C002020FFF744FF0220FFF741FF8D20FFF72B
:10451C003EFF1420FFF73BFFA420FFF738FFA62037
:10452C00FFF735FFAF20FFF732FF0020FFF75EFFEC
:10453C00BDE804400021002046E72DE9F84306467B
:10454C008946904600251EE0F6B27F2EA4BF0026B9
:10455C0009F101095FFA89F1A0F120043046FFF757
:10456C0033FFE4B26CB15C2C0BDA00270FF20C10A9
:10457C00062101FB0400385CFFF7F0FE7F1C062FC0
:10458C00F4DBB61D6D1CEDB215F808000028DBD16C
:10459C00BDE8F18338B50D4604460021FFF73CFF1A
:1045AC002A462146BDE838400020C6E72DE9F041F7
:1045BC0090B080460D4600F097F9C6B2112EA8BFF8
:1045CC001026174F3DB9324641463846FFF79EFC40
:1045DC000020F05513E0384600F086F9C4B22246AC
:1045EC00394600A8FFF7A2FC00A920206054631CE8
:1045FC0000A8DBB2324641461818FFF787FC41464B
:10460C002846FFF7C7FF10B0BDE8F081000000009E
:10461C00D020024090200240A020024000E1F5058D
:10462C00442400202DE9F04188B080460C46154604
:10463C001E4600A81C2100F081F9404600F054F9F8
:10464C00C7B23A46414600A8FFF760FC00A92020FB
:10465C0078542A4600A83818411C2046FFF7CDFD97
:10466C00314600F004F808B0BDE8F081214600A8FE
:10467C009CE7E6E69AE789B2D4E700000000000068
:10468C0000000000002F00000000070007000014CD
:10469C007F147F1400242A7F2A12006264081323DB
:1046AC0000364955225000000503000000001C2272
:1046BC004100000041221C000014083E08140008B0
:1046CC00083E0808000000A0600000080808080860
:1046DC00000060600000002010080402003E5149F8
:1046EC00453E0000427F4000004261514946002196
:1046FC0041454B31001814127F10002745454539B0
:10470C00003C4A494930000171090503003649490A
:10471C00493600064949291E0000363600000000C3
:10472C00563600000008142241000014141414140E
:10473C0000004122140800020151090600324959B7
:10474C00513E007C1211127C007F49494936003ED3
:10475C0041414122007F4141221C007F494949418E
:10476C00007F09090901003E4149497A007F080888
:10477C00087F0000417F4100002040413F01007F45
:10478C0008142241007F40404040007F020C027F11
:10479C00007F0408107F003E4141413E007F090923
:1047AC000906003E4151215E007F09192946004649
:1047BC00494949310001017F0101003F4040403F20
:1047CC00001F2040201F003F4038403F006314086A
:1047DC001463000708700807006151494543000045
:1047EC007F41410000552A552A55000041417F0068
:1047FC00000402010204004040404040000001025D
:10480C000400002054545478007F48444438003845
:10481C004444442000384444487F003854545418CD
:10482C0000087E0901020018A4A4A47C007F0804DF
:10483C0004780000447D4000004080847D00007FAF
:10484C00102844000000417F4000007C04180478CC
:10485C00007C0804047800384444443800FC2424C8
:10486C0024180018242418FC007C080404080048B0
:10487C005454542000043F444020003C4040207CD1
:10488C00001C2040201C003C4030403C00442810C0
:10489C002844001CA0A0A07C004464544C44141474
:1048AC00141414145FEA000C830706D011F8013BB2
:1048BC0000F8013BB3B18307F8D10A68B2F10133B8
:1048CC0023EA020313F0803F02BF40F8042B51F897
:1048DC00042FF3E711F8013B00F8013B13B111F879
:1048EC00013BF9E76046704700F10103810704D0F2
:1048FC0010F8011B89B18107FAD10268B2F10131BC
:10490C00914311F0803F04BF50F8042FF6E710F8E4
:10491C00011B11B110F8011BFBE7C01A70470246CE
:10492C0000E0521C1378002BFBD111F8013B1370E3
:10493C0012F8013B002BF8D170470000002200F068
:10494C0005B8000062F30F2262F31F4200B500BFEE
:10495C00130096469446103928BFA0E80C50FAD89C
:10496C005FEA417C28BF0CC048BF40F8042BC90744
:10497C0028BF20F8022B48BF00F8012B00BD000017
:10498C0000B583B00821ADF8001001900321ADF8FB
:10499C00021000A8DFF88C150968884707BD00B520
:1049AC008FB008233C22002100A8FDF715FCDFF88E
:1049BC00780500F15001079100234FF42171089103
:1049CC0000AA012106910FF23521FEF775F90FB0FF
:1049DC0000BD10B584B00820ADF800000120DFF850
:1049EC004415DFF848450968ADF8020000A888476F
:1049FC00BDF8040060800298A06004F13800FFF755
:104A0C002AFBE06000230420019041F28832002050
:104A1C00009004F114000FF2C941FFF7D1FAFFF72F
:104A2C0028FE06211F20FFF774F801208DF80100E5
:104A3C000DF101020020ADF80A00012101208DF8D2
:104A4C0000005020ADF808004FF44870ADF8060097
:104A5C000020ADF804004FF47A70ADF8020040F27B
:104A6C000530FEF72DF90DF10A02022140F2063055
:104A7C00FEF726F904F1440216214FF44270FEF7BA
:104A8C001FF904F15C02072140F20730FEF718F918
:104A9C0000AA01214FF44470FEF712F902AA022178
:104AAC0040F21130FEF70CF90DF10602022140F232
:104ABC001230FEF705F901AA022140F21330FEF77D
:104ACC00FFF80DF1020202214FF44570FEF7F8F8E1
:104ADC0004F1640215210020FEF71DFFA021062021
:104AEC00FFF717F8A0210720FFF713F8A0210820E3
:104AFC00FFF70FF8A0210920FFF70BF80020019019
:104B0C0001AA01208DF803008DF802000421002079
:104B1C008DF8010001208DF800004FF48160FFF743
:104B2C004DF80DF1030201214FF48060FFF746F8B8
:104B3C000DF10202012140F20240FFF73FF80DF1A6
:104B4C000102012140F20340FFF738F800AA0121CD
:104B5C0040F20640FFF732F84FF0FF30FEF7D8FE78
:104B6C004FF0FF30FEF79DFE00F050FA4FF0FF3093
:104B7C0000F056FB01208DF8030002208DF8020096
:104B8C0003208DF8010004208DF8000001A80FF21D
:104B9C00A0310CC90CC00DF103020121002000F062
:104BAC0071FB01210DF10202084600F06BFB0DF1C7
:104BBC0001020121022000F065FB00F0F0F801AACF
:104BCC000521042000F05EFB04F1880000F053FB8B
:104BDC0004F17C00FEF749FA04F18000FEF725FE93
:104BEC006088C0B2FEF71EFE6088C0B2FEF776FE8B
:104BFC0000210FF24430FFF73DFD1FBD2DE9F04FB2
:104C0C0087B0FFF7E6FE0FF2F4380FF2F8390FF227
:104C1C00543AC64DC34E11E0A88841070ED54FF645
:104C2C00FB710840A88005F11400FFF7EDF900A90D
:104C3C00022000F063FB08B900F0B1F80820ADF8D1
:104C4C0004000A20ADF806004FF0FF30029001A8D6
:104C5C00316888470028DFD10820ADF80C00092006
:104C6C00ADF80E0003A831688847BDF81220059FE7
:104C7C0000286CD1BDF810000124102804BF6988ED
:104C8C008A4251D138884FF6FF72904225D1B878BC
:104C9C00000749D52869002846D02978491C297075
:104CAC0000F1080201794088FEF720FE162818BF93
:104CBC00042883460AD02869698840880022C9B232
:104CCC00FFF7BAF8584600F06FF82DE02978052365
:104CDC000A225046FFF7CFFC26E03878B02823D1C3
:104CEC00787816280BD178880822C9B2FFF7A4F877
:104CFC00A8B9012000F058F82F61002414E038798D
:104D0C007E2803D1397A0FF2402004E07F2806D1A7
:104D1C0039890FF2442005230A22FFF7ACFC3979BC
:104D2C0007F10800FEF798FF8FB184B13846FFF702
:104D3C0027FE0CE0A07800F057F80820ADF804002E
:104D4C0002940520ADF8060001A831688847E86890
:104D5C00FBF75AFC00287FF45FAFE868FFF7A6F971
:104D6C000400F4D020880128E4D00228E5D1A078F2
:104D7C0060B10228E1D100A900F0C0FA9DF8001042
:104D8C0004230A224846FFF776FCD6E700A900F078
:104D9C00B5FA9DF8001004230A224046F3E700AA56
:104DAC000121032000F06EBA10B5604C2269B2B13B
:104DBC0018B921780FF2BC1007E0117902F1080044
:104DCC00FEF74AFF21780FF2C01005230A22FFF7E5
:104DDC0052FC2069FFF7D4FD00202061207010BD2B
:104DEC000146012083E0000030B5401E072885B045
:104DFC004E4C4BA56AD8DFE800F0042D69485331BE
:104E0C00446502A94FF44170FEF7A0F89DF8080024
:104E1C008DF8000002A900A84A7842708A78827046
:104E2C0000220271C2704A798DF807200A79C9787C
:104E3C008DF80620417100AA0821002000F0EEF840
:104E4C0002A8FFF742F90121FFF714FC02210FF22F
:104E5C004C103DE002210FF2501039E000A940F255
:104E6C001530FEF773F804F11400FFF7CDF80221AA
:104E7C000FF24010FFF7FEFB00A8FFF726F9032105
:104E8C0026E002210FF2381022E004F11400FFF7A3
:104E9C00D9F81420FFF788FF02210FF23C1005E02F
:104EAC001420FFF781FF02210FF23C10FFF7E2FB09
:104EBC0003212846FFF7DEFB04212846FFF7DAFB27
:104ECC00052104E002210FF22C1001E002212846FA
:104EDC00FFF7D0FB05B030BD0146022007E0000013
:104EEC0012498A88104388808868FDF781B93EB5DD
:104EFC0004460820ADF800000D4604200949ADF821
:104F0C000200019000A80968884740B9029A32B1A2
:104F1C001480957005488168C068FFF7A3F837BD09
:104F2C0000000000E4090020581B0020300600207F
:104F3C000102030405000000424C452050657269D3
:104F4C0070686572616C000046432056696F6C6135
:104F5C007465643A000000004D54552053697A651D
:104F6C003A0000005273702073656E642072657491
:104F7C0072793A005273702073656E742C207265CE
:104F8C007472793A0000000052737020726574726A
:104F9C0079206661696C65643A000000496E697439
:104FAC0069616C697A6564004164766572746973D1
:104FBC00696E6700436F6E6E656374656400000014
:104FCC00436F6E6E656374656420416476657274BC
:104FDC006973696E67000000446973636F6E6E6578
:104FEC00637465640000000054696D6564204F753E
:104FFC00740000004572726F7200000043686172A9
:10500C0020313A004368617220333A000FF20423D6
:10501C007D4810221321FEF747BC00002DE9F04318
:10502C000024082885B00E469146784F00F28A80FD
:10503C00DFE800F0050C1824303C48537D00082EA6
:10504C0076D13246494607F1080076E0152E77DA1C
:10505C00152107F11000FFF771FC3246494607F1A4
:10506C0010006AE0152E6BDA152107F12800FFF706
:10507C0065FC3246494607F128005EE0152E5FDAE2
:10508C00152107F14000FFF759FC3246494607F15C
:10509C00400052E0152E53DA152107F15800FFF7A6
:1050AC004DFC3246494607F1580046E0152E47DACA
:1050BC00152107F17000FFF741FC3246494607F114
:1050CC0070003AE0152E3BDA883715213846FFF789
:1050DC0035FC3246494638462FE00820ADF808002A
:1050EC000420ADF80A00039602A8DFF82481D8F852
:1050FC0000108847C8B9049DBDB1786807F1A001BC
:10510C0088420AD00821ADF8001001900521ADF8B5
:10511C00021000A8D8F800108847324649462846A5
:10512C00FEF7F4FE7D603E700DE013240BE0072EBD
:10513C0006D13246494607F1B000FEF7E7FE02E021
:10514C00182400E00224204605B0BDE8F0830000DE
:10515C002DE9FE4990464A680A9C107852780B9DBE
:10516C0000EB02201F46002680B242F62322274B7A
:10517C00801A04EB030C07D0401E052810D9801FA1
:10518C001ED0263829D03AE0092C28D2C4F10800C8
:10519C00854228BFC4F108053D800CF1080129E0C7
:1051AC00D1F80CB05846FFF79FFB80B2A04216DB3B
:1051BC00011B8D42A8BF051B3D8004EB0B0119E0C0
:1051CC0018780146A1420AD3001B8542A8BF0D1BCB
:1051DC003D8058683A8821180DE0082C01D3072629
:1051EC000FE0C4F10700854228BFC4F107053D80DC
:1051FC000CF1B0013A884046FEF788FE01E03E8093
:10520C000A263046BDE8FE890802002078050020F9
:10521C00E40900205D5100000000000000000000C7
:10522C003EB504460820ADF800000420ADF802009D
:10523C007A497B48007809687A4D8000019000A873
:10524C008847002814BF002002980100A86001D1F3
:10525C0013203EBD4FF6FF7000F0ECF8E00708D5C8
:10526C000FF2C4131022112105F11400FEF71CFBE0
:10527C003EBD00203EBD18B16A4948600020704711
:10528C00112070473EB513460024664D30B10228FC
:10529C000ED008D3042823D00FD32CE0012928D119
:1052AC001878287028E0012923D11878687023E039
:1052BC0001291ED11878A8701EE0012919D118787F
:1052CC00E87005F114030FF2710002900022FF2028
:1052DC000190E91C11200090A86800F0C5F80BE0C3
:1052EC00052906D10522194605F10C00FEF70EFE24
:1052FC0002E0182400E0022420463EBD10B5024610
:10530C0008460024474932B1022A08D005D3042AA2
:10531C000AD006D30DE0097804E0497802E08978D8
:10532C0000E0C978017005E005220C31FEF7EEFDB6
:10533C0000E00224204610BD38B510460A7A00243D
:10534C00D20601D5082032BD049A0AB10B2032BD19
:10535C000A78022A1ED14A681578527805EB022287
:10536C0092B24FF6F175521B012A04D9D21E02D00B
:10537C00521E06D00BE001221A80C9680978017010
:10538C000AE005221A80C968FEF7C0FD04E01C8003
:10539C000A2401E01C800124204632BDF0B50C7AB1
:1053AC000025A40683B001D50820FEBD0C78022C84
:1053BC0018BF012526D14E6837787678089C07EB04
:1053CC000626B6B242F60217F61B1DD04DF2EF6759
:1053DC00F61B01D0B61E1ED11CB9012B03D00D2516
:1053EC0010E00B250EE01078CA681070C8680D4AE2
:1053FC005168904214BF0220002019B109680A00BC
:10540C0018BF88472846FEBD01250195009400F081
:10541C0089F80546F6E70A25F4E70000E4090020C0
:10542C005C0400203803002045530000A953000001
:10543C000000000038B54FF6FF74A0420DD10020DB
:10544C00614A137898420EDA21F8204001EB80056E
:10545C000023401CAB70C0B2F3E700F0A4F810B10D
:10546C0004800021817031BD2DE9F34F0027002805
:10547C0018BF002983B090469A4605D0BAF1000FA8
:10548C001CBF109D002D01D1022032E00F9CB946AB
:10549C0028E0039800EB89064FF6FF7130888842AC
:1054AC001CBFB07800281BD0049ABDF838105046A9
:1054BC0000F028F85FEA000B12D0B078C00705D5D1
:1054CC0000F01AF8012100F081F80743B07880074A
:1054DC0006D500F011F8022100F078F80743FFB26E
:1054EC0009F10109384800785FFA89F98145D0D370
:1054FC00F8B205B0BDE8F08F019500945B4630889A
:10550C004246704730B5002400E0641CA4B28C42C3
:10551C0006D200EB0413DD689542F6D1184630BD77
:10552C00002030BDF8B5044606980D460026F0B9AB
:10553C00022B1AD11078517800EB01270798C04341
:10554C00B9B201420FD1E8680168204600F012F8A8
:10555C00BFB2B8420CD0E86801683A46204600F069
:10556C000FF8064604E0802602E00D2600E00B262C
:10557C003046F2BD80B500F016F800B1807802BD5F
:10558C0070B504460D46164600F00DF840B9294694
:10559C004FF6FF7000F007F808B9112070BD0480B9
:1055AC008670002070BD002200E0521C064B1B7858
:1055BC00D2B29A4206D231F822308342F5D101EBB5
:1055CC0082007047002070475C0400202DE9F041F8
:1055DC0086B00D4690461F46044603AB4FF6FF724D
:1055EC001B21FEF72AFB059040B3FF2102910246D6
:1055FC00BDF80C10DDF834C001910DF1120300213F
:10560C00009120463946E047060011D17889ADF863
:10561C001000E80705D5424604A92046FEF7E7F935
:10562C0005E00C9B424604A92046FEF7EFF906461E
:10563C002EB11B2104A8FEF70FFB00E01526304607
:10564C0006B0BDE8F0810000DFF800F009B70110EA
:10565C00DFF800F03DC10110DFF800F029AF0110B8
:10566C0090FAA0F0B0FA80F0704780B5DFF85C02D9
:10567C000068FFF7F5FF0121DFF85422814011602B
:10568C000121DFF850221160DFF84C120A689042B9
:10569C000BD201EB80014A683AB11368190004D0AF
:1056AC00C1B21046BDE80440184701BDF8B50D0065
:1056BC00ECB244BF85F0204585F4C045A10001F152
:1056CC00804101F5012100EA05060A68DFF80C7239
:1056DC003E4085EA020382433243034000F4E02655
:1056EC001B0EB6F5E02F03F0010302D1D30105D454
:1056FC0011E010F4E02F08BF002B0CD002F4E023D3
:10570C00B3F5A02F04D0B3F5C02F04D1052300E0CE
:10571C00062363F312420A60410205D5A90DDFF896
:10572C00C02101F00101115500020ED5FCF7DAF988
:10573C0000F0C6F82C024CBF1C4600249A432243AE
:10574C000A60BDE8F240FCF7D1B9F1BD002948BFB1
:10575C000021800000F1804000F5012001F03F01A4
:10576C000268920941EA8211016070472DE9F04FFD
:10577C0097B08146FCF7B8FC0025012804D1FCF752
:10578C00A9FC022808BF0125DFF85801C168C1F344
:10579C00815101294FF0010A04D10068000E0AFA68
:1057AC0000F00543DFF84001DFF82C610078DFF8EA
:1057BC003C010068C0F346003060FCF795FC012802
:1057CC0002D13068401C30603168DFF8247119B1A7
:1057DC00FF223846FFF7B6F84FF00008002405E02A
:1057EC00CC550AFA00F040EA0808641C59F8240069
:1057FC00C1B2FF2908D03268914203D225FA00F2D7
:10580C00D207EDD5022058E00920FBF7C3F8C6F803
:10581C0080900823242200210DA8FCF715FD8DF89B
:10582C004CA00DAA012106F1A000FFF70DFF0024EA
:10583C00DFF8C0A00BE05046FFF738FF4FF0FF3108
:10584C00E0B2FFF783FF0020CBF80400641C306843
:10585C00844212D225FA04F0C00706EB840B48BF31
:10586C000420F1D428FA04F0C00747BFE05D59F8D2
:10587C002010E0B240F4C041DDE7082330220021C3
:10588C0001A8FFF7E5FE0020009001ABDFF86820CF
:10589C00102106F18400FFF7DFFEDFF860000168DD
:1058AC0021F47C5141F4005101600120DFF85010CB
:1058BC000860DFF850100860002017B0BDE8F08FCA
:1058CC0011490A680123A34070470000E020024000
:1058DC00E020026080E200E068230020007F077F68
:1058EC0000200240A83F0050BE2400208012084037
:1058FC0024240020007FC767775600000030094041
:10590C000C40094008000940D020024080B5012815
:10591C000BD002280BD0042802D0082809D00AE0AA
:10592C0000200A689047002002BD0220F9E70420FD
:10593C00F7E70520F5E7FDF7B5F900BF38B50446E4
:10594C00012504E005FA00F0C0B2FBF779F8B4FACF
:10595C0084F0202800D131BD00F01CF8F2DB401F90
:10596C00C0B2FBF717F8F2E738B50446012504E09E
:10597C0005FA00F0C0B2FAF781FFB4FA84F02028DF
:10598C0000D131BD00F006F8F2DB401FC0B2FAF7CF
:10599C0095FFF2E7C0F11F00C0B205FA00F14C40D0
:1059AC000528704738B500793C4CA8B1FCF75EFC73
:1059BC0005462078FF2805D12846FCF762FC6FF0DD
:1059CC00060032BD401C2070C0B2012804BF6068C4
:1059DC00FFF7B4FF284612E0FCF748FC217821B908
:1059EC00FCF74FFC6FF0070032BD491E2170C9B2A5
:1059FC0029B9FCF746FC6068FFF7B6FF01E0FCF73D
:105A0C0040FC002032BD70B50446606810F07F4F3A
:105A1C0002D06FF0020070BDFCF728FC1F4E05464B
:105A2C00307828B17068FFF79FFF6068FFF786FF3A
:105A3C00606870602846FCF724FC002070BD80B5BF
:105A4C00406810F07F4F00D00DE0FFF777FF00208B
