:20E0000038B50D4604460DF065F907482168016061684160A16881600DF050FB0DF017FA38
:0CE0200028460CF0A0FD38BD444800204C
:20E02C00DFF8441C0870704738B5DFF8404CDFF8405C20702878C0000DF0FAFA6060C8B191
:20E04C00002108E04FF6FF7220F8312000EBC10300225A60491C2A789142F3DB052000F044
:20E06C00AEF8207802F079FDBDE83240DFF8040C0BF08EBB31BD38B50C46200418D5DFF897
:20E08C00EC0B007804F0CDFF05000ED02878B02808D1284600F004F920B1297905F1080045
:20E0AC000BF05AF8284604F05CFF84F4004032BD002032BD7CB504001D460CD0ADF800106B
:20E0CC008DF80220019400A802F0DBFC060019D1C5B164890CB9022614E00C200DF0A8FA88
:20E0EC0008B913260EE00021016084808560DFF8881B0A6812B9086004E00A4611680029CC
:20E10C00FBD11060304676BD30B50D46DFF8681B0446086883B0002201E00246006890B19B
:20E12C008388A342F9D10368002A0CBF0B6013600DF08FFA00A9204602F0EFFC10B90DB1E2
:20E14C00019929603EBD01203EBD70B558BB012927D1DFF8180B416800230C2601E05B1CCF
:20E16C00DBB2DFF80C4B2478A34216DA31F833404FF6FF75AC42F2D0002400E0641C457821
:20E18C00E4B2AC42EBD201EBC3056D6806FB04552D88002DF2D0012070BDBDE87040107880
:20E1AC000DE0182070BD022070BD0022002803BFDFF8B80A407808700222104670472DE996
:20E1CC00F843DFF8A87A0446002078700C257868DFF89C6A406805FB04F868B10DF039FAD2
:20E1EC000020002204E0796801EBC001401C4A60C0B231788842F6D3307808FB00F080B2DE
:20E20C000DF016FA5FEA000927D0307808FB00F20021484604F0C0FE00200FE0516805FBD6
:20E22C000CF34FF0000E23F801E059180CF1010CC1F808E0A445F1DBC144401C3178C0B23D
:20E24C00884207D2796801EBC0024FF0000CC2F80490EFE77C70002000E01320BDE8F283D8
:20E26C0001460020C90705D5002310220121DFF80C0D1FE7704701460020C90704D5DFF876
:20E28C00FC0C408900213FE77047DFF8EC19096821B18A888242FAD1886870470020704765
:20E2AC002DE9F04387B004460020ADF8100001208DF81200DFF8005DE86938B90CF08CFA03
:20E2CC000DF0B6F90028E86100F0E68018220021284604F061FE2079022800F1010804F1F1
:20E2EC0008074FF6FF7917D006282CD008282FD00A2832D00C2855D00E2800F08880102813
:20E30C0000F08A80122800F08C80162800F09080182800F09680BCE00CF05EFA2880294636
:20E32C0060880CF005F800283988288804D0814228BF014629809FE0814228BF0146608891
:20E34C000AF078FEA5E004A9204600F0AFF87CE004A9204600F031F977E000F0A2F80600A2
:20E36C0050D0608805AB4A460B210AF0B9FE03006B6023D02079BDF8162003900095314688
:20E38C00BDF8140000F0A3F900F028FA060004D1608829460CF016F829E0162E686808BFEA
:20E3AC0000262BE000F07DF806002BD0608805AB4A460D210AF094FE686020B93888ADF8D2
:20E3CC001000112645E02179BDF8162003910346BDF814100291798801910095314600F068
:20E3EC00FDF9060006D1608829460BF0F9FF002842D12BE0162E686808BF00260CF019FD9B
:20E40C000EB923E001263888ADF810001EE004A9204600F060F918E004A9204600F0E5F957
:20E42C0013E00DF1120204A9204600F080FA0CE004A9204600F0C1FA060007D18DF812002F
:20E44C0027E004A9204600F01AFB064696B1162E12D0607814280DD0207928702946BDF892
:20E46C00100068802E7160880BF059FF10B14FF0010801E0162E0CD160882B465FFA88F287
:20E48C0016210AF0CDFD20B15FFA88F128460AF063FE20460AF0FBFC9DF8120007B0BDE8AF
:20E4AC00F08338880DF1160102F006BC2DE9FA4786B0044604F1080500F034FA05906A1D41
:20E4CC000DF1120000902B796988288802F0C6FB002780464FF0FF0AB8F1000F5BD009E097
:20E4EC00BDF810300B54BDF81000716892B2000A5054571C0598BFB2401F87424BDA2079C5
:20E50C00BDF8122003904FF000090598CDF80490C01F80B20290414600F05CF9002802BFDF
:20E52C00328B2889904214D1F169E86804F04FFD78B1706858B900F048F907210AF0D0FD8E
:20E54C00706020B9069928880880112032E0B8F80A90BDF81220698804AB404602F0D0FBD8
:20E56C00B9F1000F8046B7D0706807F80090781C726880B24FEA29218154411C4A1C70688F
:20E58C00B8F1000F89B2ABD101F800A092B2706802F800A0571CBFB247B1B80830803146EE
:20E5AC0060880BF0E9FE28B1162003E00699288808800A2008B0BDE8F0872DE9F04F89B030
:20E5CC00044604F1080005908A4606886088DFF8E85908F0F5FA07900027001FB84606909D
:20E5EC004FF6FF7900E0761C0698B84257DB04A80090059803794188421DB0B202F02EFB1C
:20E60C005FEA000B4BD0BBF80A60BDF810209BF80810608802F0A5FA5FEA00083FD100F008
:20E62C00DFF859460798001F00F050F805F118000090EB6900F0D2F85FEA00082FD17FB92D
:20E64C00608800234A4609210AF04AFD686018B9AAF80060112036E0288B801C688004E0AB
:20E66C00298B6888891C88421AD1298B0698C919884214DB6968BBF80A007854BBF80A107C
:20E68C006A6800F049F968682A8BE969BFB2381804F084FC288BC7194E45BFB2A3D157B14B
:20E6AC00688897FBF0F02880294660880BF074FE48B1162007E0B8F1000F08BF4FF00A089A
:20E6CC00AAF80060404609B0BDE8F08F80B202900020019070472DE9F04F85B00D46044676
:20E6EC0004F108066088DFF8D07808F069FA4FF0000BA0F10108A0F1010A16E039883A8BAD
:20E70C00084612189245BCBFA8EB010139837B683A8BF969C01804F041FC3888398B08181B
:20E72C0038800BF101001FFA80FBB0888345BCBF3888504537DA306810F81B2000EB4B0092
:20E74C0004A9407802EB002080B202F0B5FA01000BD14FF0010900F02EF8786808B10CF097
:20E76C0068FB484605B0BDE8F08F00F039F81FFA88F0FFF7ACFF07F118000090FB6900F07C
:20E78C002DF85FEA0009E6D178680028B6D100F01CF80F210AF0A4FC00287860AED100F073
:20E7AC000AF81120DEE7608839460BF027FE0028D8D01620D6E7306810F81B1000EB4B000A
:20E7CC00407801EB002028807047608800234FF6FF72704706F118000090F369608853E27A
:20E7EC002079BDF81020039070472DE9F04786B08846044604F1080900F094F8059009F199
:20E80C00050204A8009099F80430B9F80210B9F8000002F023FA0027BA4605460FE0726826
:20E82C00FF21B95480B272688154471C7068328BF169BFB2381804F0B1FB308BC719BFB2FF
:20E84C00BDB1BDF81020297A608802F08AF95FEA000A0BD1FFF7C4FF29460598801FFFF7D0
:20E86C0035FFFFF7B7FF5FEA000A10D06889A8F80000002F43D0708897FBF0F03080314615
:20E88C0060880BF0CAFD002843D0162041E07FB9FFF79BFF11210AF023FC706020B9688983
:20E8AC00A8F80000112034E0308B001D708009E0308B7188021D9142DDD10599891FC01943
:20E8CC008142D8DB7168688978546989726800F023F8BDF81020B9F802100DF11203284620
:20E8EC0002F00EFA0546781C002DBFB297D07268BDF81210B954BDF81210090A92E7B9F85C
:20E90C000000A8F80000BAF1000F08BF4FF00A0A504606B0BDE8F087781C80B2090A815461
:20E92C00471C70476088DFF8906608F049B92DE9F041044604F1080784B00D463888904650
:20E94C0002A902F0B9F906002FD0307A80060BD5BDF8080000F092F903000BD06088122215
:20E96C0031469847060021D1787A002814BF5220207901E00E2619E00190002000907B88F3
:20E98C007A683988608800F079FA060007D1787A70B960880BF052FD50B116200CE0162EEB
:20E9AC0004D1002688F8006002E0012638882880787A00B1002630465EE02DE9FF410446E2
:20E9CC0004F108068846308800A902F075F9002705004CD0287A80060BD5BDF8000000F0A4
:20E9EC004DF9030015D0608812222946984707003ED16588284600F004F9010006D14FF6F8
:20EA0C00FF7000F0FEF801002DD00D800022974B02E00E272CE0521C5878D2B2824222D269
:20EA2C0048680C2505FB02000588002DF3D10C22314604F0B3FA0C22314601A804F0AEFA39
:20EA4C00B2886088002317210AF04AFB039060B1B288B16804F0A2FA608801A90BF0F4FCEA
:20EA6C0048B1162008E0092702E0112700E001273088A8F80000384604B0BDE8F0812DE96B
:20EA8C00F04383B089460027044604F10805608800F0B7F85FEA00084AD02878012843D1F3
:20EAAC004146284600F050F8A0B1D8F804501820019068880090AB88AA682988608800F091
:20EACC00DDF90746162F02D10020A8602CE05FB3288827E000250EE0019070880090B3888B
:20EAEC00B268608800F0CAF90746162F17D10020B0606D1CEDB25D484078854214DAD8F8A1
:20EB0C0004100C2202FB05121646318861B16B1C83421DBF9089002816201820DCE7002FA3
:20EB2C00E7D03088A9F80000404600F07DF82FB960880BF096FC20B1162003E0162F08BF7B
:20EB4C0000273846BDE8FE832DE9F84F0C46002100250E464FF00C0B44480EE0994202BF29
:20EB6C00BCF8027093B2BB4224D1BCF804305D19ADB29A18761C92B2F6B243789E420EDABC
:20EB8C0063680BFB063CBCF8003043B10029E5D1BCF80450BCF802201946AA18EAE7022E9F
:20EBAC002CDB28004FF0000904D00CF029F95FEA000801D1002022E0CA4619E00BFB0A077B
:20EBCC00B96859B1BA8809EB080004F0E7F9B88848441FFA80F9B8680CF02BF9BAF1000F94
:20EBEC0004D00C220021384604F0D6F90AF1010AB2456068E2DBC0F8088085800120BDE818
:20EC0C00F28F1A4A5268002100E0491C184B1B78C9B2994206D232F831308342F5D102EBBC
:20EC2C00C10070470020704770B5044600250BE0B06808B10CF0FDF80C220021304604F07F
:20EC4C00ABF9002030806D1C08484078EDB2854206D260680C2101FB050630880028E7D1D1
:20EC6C004FF6FF70208070BD47470020744800208447002035EF0000A448002080B5FFF737
:20EC8C0004FB00B1806802BD2DE9FE4F0D468046287AC00693461E464FF0000A0CD5584628
:20ECAC00FFF7ECFF030000F0E4800A222946404698475FEA000A49D128780C9F0D9CDDF8DA
:20ECCC003890022816D100F016F94FF42051401A012810D9801E3AD0401E14D0FD3876D0CB
:20ECEC00401E00F07D80401E6AD0401E6FD0401E00F09180A7E0002C2AD1E86801783980F9
:20ED0C000278416883E0002C22D1012038800021E868007830706889401C80B201F0CCFFA5
:20ED2C00398860B10278921C51183980418971704189090AB17002784168F01C68E0081D66
:20ED4C00388004220021701C04F026F993E0002C62D1E8680488042038803470200A7070D1
:20ED6C000DF10201204601F0A7FF05001ED0EC68BDF802204FF6FF7800AB414601F0C0FFCD
:20ED8C0040B92B786A688D48022107F0A9FE08B9ADF80080207802280AD161680222301DA6
:20EDAC0004F0FCF83888801C388001E0ADF80040BDF80000B070BDF80000000AF0705AE057
:20EDCC0054BBE868016840460CF065FB02E01CBBE8680088022139803070000A70704AE05C
:20EDEC00E86804F02BFC82B2A242B8BF4FF0070A41DB944208BF002206D009EB0401914240
:20EE0C00B2BF4A46121B92B23A80E9686118304604F0C4F82FE014B14FF00B0A2BE0E86847
:20EE2C000721398001783170417871704188B1704188090AF17001793171C1887171C0887B
:20EE4C00000AB07117E05846FFF71FFA00281CBFD0F800C0BCF1000F0BD00F980290CDF8B7
:20EE6C00049000943B46324629464046E047824601E04FF00E0A5046BDE8FE8F2DE9FE432A
:20EE8C008046894617461E4602A9484601F014FF05002CD0BDF80800FFF7F7F900281CBF2C
:20EEAC00D0F804C0BCF1000F1FD00A980B9C0090019433463A4629464046E047060017D19E
:20EECC00FE2C15D02878022812D100F014F842F6021188420CD13878797800EB012292B289
:20EEEC004946404600F04CF802E00E2600E001263046BDE8FE8368680178407801EB0020F7
:20EF0C0080B27047704700207047E0B58DF808200223120A8DF80920FE22019200220092D6
:20EF2C0002AAFFF7ABFF0EBD7CB50129044605D0022922D101210AF0BFFCF0B92046FFF73A
:20EF4C0060FE08B1FFF770FE01A800904FF6FF7502231B4A2946012001F080FE0BE0F0686C
:20EF6C00016820460CF09FFABDF8042000232946304601F0C5FE0600F1D173BDE04600204E
:20EF8C00F8B5104F04463878FF280D46164611D00A2003F0D1FF68B1B1210170448000217A
:20EFAC0041700171C580068101463878BDE8F44004F0C9B8F1BD0000EC47002020A9010046
:20EFCC0034A90100474700207FB5064623250024E8B210216A4608F0DEF868B96846FF2175
:20EFEC00102203F0E7FF38B9684631460CF03AF8002808BF201C04D0641CAD1D0A2CE7DB75
:20F00C000A2000907FBD1FB50A280C460FDA74B1410001EB80016A462031C8B20E2108F038
:20F02C00BAF820B920466946062203F0B7FF00901FBD70B5BC4D064600242846314606223C
:20F04C0003F0C5FF002818BF201C04D1641C0E350A2CF2DB0A2070BD70B5B34C064600252B
:20F06C00A41F20463146062203F0B1FF002818BF281C04D16D1C0E340A2DF2DB0A2070BDDB
:20F08C0070B5012814460E4615D9801E08D0401E1ED10846FFF798FF05460A2D06DB18E081
:20F0AC000846FFF7C6FF05460A2D12DA8CB12146FFF7A9FF0DE00846FFF7CEFF05460A2D0B
:20F0CC0007DA34B120463146062203F067FF00E00A25284670BD011F4FF6FF73042031F832
:20F0EC00042F5A400A808A78401E82F0FF028A70F5D17047091F042231F8043F984208BF08
:20F10C00081C02D0521EF7D100207047B0B505460F4614466800ADF1200D0E2100EB8500AD
:20F12C006A462030C0B208F036F800282ED16846FF21062203F03EFF40BB7035E8B2102173
:20F14C000DF10E02054608F026F8002832D10DF10E00FFF7C0FF67B90DF10E0000211022C9
:20F16C0003F028FF30BB0DF10E00102203F014FF16E038460DF10E01FFF7BCFF48B92CB12A
:20F18C0000200DF10E01FFF7B5FF08B9002012E0078081788C420DD084700CB90021018033
:20F1AC000DF10E00FFF797FF284610210DF10E0208F060F9012008B0B0BD70B50E464FF6A9
:20F1CC00FF71154681420FD00AF048FBA8B14279811D10460022FFF753FF0A280DDA314677
:20F1EC002A46FFF793FF70BD002431462A462046FFF78CFF641C0A2CF7DB70BD70B5C04C06
:20F20C00E069216A8588ADF1180D61B904F11000B54A00904FF6FF710223012001F01EFD89
:20F22C000146216221B304A800900026019602230293FF220392228A28460DF11203FFF798
:20F24C0023FD58B99DF813009DF81220216A12EB002204D049892846FFF7AFFF216A228A69
:20F26C00084633464FF6FF7101F04AFD01462162002001B9012006B070BD10B5A04C0C3435
:20F28C00206920B1206903F06CFE002020610A20207010BD38B59A4C00253E342046FF210A
:20F2AC00062203F087FE002818BF281C04D16D1C0E340A2DF2DB0A2038BD38B50CF02EFC89
:20F2CC008F4C0A253E342046FF21062203F072FE18B9002021460CF01DFC6D1E04F10E0496
:20F2EC00F1D138BD70B5864D0A2600243E352846FF21062203F05EFE08B9641CE4B20E356D
:20F30C00761EF4D1204670BD08B5FFF7EBFF0228B4BF0A20022001216A468DF800000520F3
:20F32C0009F022FC08BDC0462C440020F0B5744CE5690F460646ADF1140D55B9F6B1EFB1E7
:20F34C00FFF78AFE0A28207304DBFFF7A3FF207300E0207B0A2811DA002D4DD0AA68002A36
:20F36C003ED12A69002A2FD16A690ABBEA683AB9A07A08B1FFF7A1FFFFF7C6FF01205CE057
:20F38C00410001EB80012431C8B2102108F072F8E769217BFA68480000EB810010322530B8
:20F3AC000421C0B208F066F8E1690020C86043E0410001EB80012331C8B2102108F05AF8A8
:20F3CC00E1690020486137E0410001EB80012231C8B21C2108F04EF8E169002008612BE023
:20F3EC00410001EB80012131C8B21C2108F042F8E169002088601FE0410001EB80013246A1
:20F40C002031C8B20E2108F035F86846FF21102203F0C2FD207B10216A467030C0B208F089
:20F42C0029F8217B0E220801A0EB4100201831463E3003F0B3FDE761002005B0F0BDB0B50F
:20F44C000F4615460446ADF1200D00212022684603F0A2FDADF80040294C8C4AE01C017893
:20F46C00069B8DF80410417880791A408DF81C00207A8DF8051000F003030101134301F422
:20F48C0080721A43804B00F0040001F4C0611340194308430690207930B10DF1060004F139
:20F4AC002E01102203F07AFD607920B11FB1069941F002010691002100B10121A7789DF8E9
:20F4CC001600002F41EA00018DF816100CBF002004209DF8161008438DF816002946684637
:20F4EC0003F063F908B0B0BD34A90100F0B5C24C0546207BADF13C0DA8420DD102E0C0467E
:20F50C00E84300202078012103F0ADFE2078022103F0A9FEFFF7B1FE6C0004EB85040E212F
:20F52C000BAA04F1200004F12007C6B2F8B207F032FE00284BD10BA8FF21062203F03AFD27
:20F54C00002844D10BA80E2203F026FD04AFFF211C22384603F020FD6846FF21102203F0D7
:20F56C001BFD30460E210BAA07F084FF06461C2104F121003A46C0B207F07CFF1C2106430A
:20F58C003A4604F12200C0B207F074FF102106433A4604F12300C0B207F06CFF102106438C
:20F5AC003A4604F12400C0B207F064FF2534042106433A46E0B207F05DFF703510216A4628
:20F5CC0040EA0604E8B207F055FF204300E000200FB0F0BD10B50024204628B92046FFF7AB
:20F5EC0085FF641C0A2CF8DB10BD2DE9F041DFF8088200270A25202608F13E0430460E2101
:20F60C00224607F0C8FD50B12046FF21062203F0C3FCA01DFF21062203F0BEFCA7816D1EF4
:20F62C0004F10E0406F10606E8D198F80A0008B1FFF743FEFFF768FEBDE8F08170B50AF0E0
:20F64C003CFAF8B96C4CE07A01280ED0002523342E4614F8010F012803D13046FFF746FFE4
:20F66C002570761C0A2EF4DB08E0FFF7B3FF002104F124000A22E17203F08EFC07F052FF42
:20F68C00FFF7B3FF70BDC046FBF9FFFFFCFEFFFFF0B50446584DA178A869ADF1140D891F74
:20F6AC0000F0AC80C91E00F09480491E52D0491E3DD0C91E33D0481E40F0A280A879E97915
:20F6CC0048BB687830B3A0880AF0C8F8071C00F09780A07A40080CD3787950B1E168890A3D
:20F6EC0007D2B91D6A46FFF7CBFC002808BF032111D0A088797904F10802FFF7A0FEA86930
:20F70C0000287DD04368002B7AD000210A46A088984775E00521A08803F094F870E0002836
:20F72C006ED04368002B6BD062780221EFE708B1076847B96869618903F0ACF800285FD0CA
:20F74C0060890121E8E76189227B637BE01C3C46A04755E06678002776BBA17949082BD325
:20F76C00EE694EBB684639460E2203F015FC606938B9A0880AF072F8002841D0801D014659
:20F78C0001E0616910316846062203F007FCA079BDF80C10C0F380000843ADF80C00214625
:20F7AC006846FFF7C3FD28B92878022103F00EFD384626E0A869152710B3436803B3A0881A
:20F7CC00627801219847DFB1A869436803213A469DE7E078211D0022FFF752FC0A280FDAB7
:20F7EC00410001EB800004F10C0225300421C0B207F040FE04E0C046E8430020FFF71EFFE4
:20F80C00012005B0F0BD0246107920B95088D1881289FFF7D2BC7047014601F108000979E5
:20F82C0009F09ABC10B501780124B0390AD0491E05D01F3908D1FFF72BFF044604E0FFF796
:20F84C00E2FF01E0FFF7E8FF204610BDB0B5B54D28780C46E10BC90336D1A00824D26008AC
:20F86C0006D2E00828BF84F0040439D20020B0BDFFF7C4FC002808BF84F001041BD0A869A7
:20F88C0068B143685BB1E8698088012100229847A869EF694368B888032100229847FFF7A1
:20F8AC00ECFC84F001041BE000200146FFF73EFD18B184F00204012102E0022184F0020464
:20F8CC00287803F083FC0BE003F0ABFB071C05D0FFF7A8FF10B1384603F043FB84F40044C5
:20F8EC00A0B2B0BD410000B501EB8000ADF1140D20300E216A46C0B207F04DFC002814BF40
:20F90C0000209DF80C0005B000BDF0B505469D48007816460024ADF11C0D022808BF0124FE
:20F92C00082B04D1480000EB8100223003E0480000EB81002130C7B200211C22684603F04C
:20F94C002BFB1C216A46384607F025FC60B99DF81A00072808DB102806DC284606F0010198
:20F96C006A46234602F0BCFF07B0F0BD854B5B1E5A79002102B101219A780AB141F004013C
:20F98C000BF012B92DE9F0430C46164605461F46ADF12C0D0021062209A80BF0A8FB284611
:20F9AC00214609AAFFF76CFB04460A2C42DAFFF799FF81463B46214630464A46FFF7A5FF4B
:20F9CC000DF1100800211422404603F0E5FA650005EB840505F1240010214246C0B207F03C
:20F9EC00DAFB88B94046FF21102203F0E3FA58B9253508AA0421E8B207F0CDFB304609F033
:20FA0C000101424602F0ADFE703410216A46E0B207F0C1FB70B96846FFF75DFB0425ADF1FD
:20FA2C00040434F8041F19B1A2783046FFF76DFA6D1EF6D1042F06D152480078022802D141
:20FA4C003046FFF793FF0BB00020BDE8F08338B50546104659B94C4AB0FBF2F15143401AF7
:20FA6C00294602F017FF041C05D0012100E00024284602F0E7FE204638BD10B5294C217875
:20FA8C00A061262008F0A0FB2078FEF7C9FA10BD80B507460623203F012097FBF3F25A4324
:20FAAC00BF1A10D07F1E012F0AD9BF1E012F04D9BF1E0BD1042908D080BD102905D080BDA1
:20FACC001C2902D080BD0E2900D1002080BD15492DE9F04F8646ADF1140D887ACA7803904C
:20FAEC008A4C00924B7891F8098091F807A091F80690087A4F6902908A784879CE890190F7
:20FB0C0008790025AEF5806CBCF10E0F0CD8DFE80CF033312F2D2C2623211F0B1C1B1A184A
:20FB2C0015C0C046E8430020BEF1270FA8BF022523DA704608F056FB20801EE0FFF7D2FBC3
:20FB4C0013E0DDF80C80C246D146CDF8089001E0276012E0029801900198024608E02E311C
:20FB6C002046102203F01AFA07E00090009B03E01046FAE73046DFE72370284605B0BDE817
:20FB8C00F08FC046E943002040420F00FEB516465F4C624F624B5F4A84460025ACF5806CBA
:20FBAC00BCF1100F0AD8DFE80CF0A39C948C857C756F655A524A4135090912C0272827DA7F
:20FBCC00022925D1318808F0FFFA054698E0072940F09580711C6846062203F052FA3078CC
:20FBEC0069462A46FFF74CFA06460A2E10DA09F064FF38B93046FFF779FC07F093FCFFF786
:20FC0C00F4FC7DE02046012700F11B04A75577E0022575E0012972D1424A3178907A00284A
:20FC2C0091726DD1307801286AD1E8E7012966D13178072963DB102961DC20460DE0012931
:20FC4C005DD131780A295ADA1046401C05E0012955D13178022952DA104607462FE0002998
:20FC6C004DD109F02AFF10B9FFF7B4FCC5E7012120460DE0042942D13168274888423ED385
:20FC8C0020460B3001603BE0012938D131781046801C24E0012932D1317802292FDA3846E1
:20FCAC0015E010292BD1204631461022253003F075F925E0012922D1317802291FDA3846DC
:20FCCC000DE001291BD13178042918DC1846401C05E0012913D13178022910DA1846017011
:20FCEC000EE002290BD131882046401D018007E0012904D131780229D8BF0B48ADDD18259B
:20FD0C002846FEBD07490870FFF76FBC4F470020F1430020EE4300203F420F00EC4300208B
:20FD2C00EA430020E8430020E94300202DE9F84FDFF8704ADFF8705A207007210020A86064
:20FD4C00DFF8680A01700D2141804FF404718180DFF85C0ADFF85C1AE9608A7E0270FF2ABF
:20FD6C00CB7E437008BFFF2B0E7F86704F7FC77091F81EC080F804C0C97F417116D1FF2E51
:20FD8C0008BFFF2F12D1BCF1FF0F08BFFF290DD1DFF8581B0A7802704A7842708A78827051
:20FDAC00CA78C2700A79027149794171DFF8401B0278DFF8B48BDFF8B47BDFF860EB0A70F5
:20FDCC0042784A7082788A70C278CA7002790A714079DFF89C2B4871FF21DFF8440B01707E
:20FDEC0041708170C17001714171101D017141718171C17101724172002101708172A0211F
:20FE0C008181032181730721C1730021017428214182012101750021817502F15A0100229F
:20FE2C004A7001220A7042750020DFF8481B0880D8F82C30DFF8401B5878087019783970E6
:20FE4C009A782A709E683679761E8EF80060DB78DFF8286B6B704FF4967333801B261B23A5
:20FE6C0092FBF3F306FB132202B10122D21850436880881C1821484380B20BF0D9FBDFF852
:20FE8C00006BB060002855D03878002855D04FF49071484380B20BF0CBFBDFF8E89AC9F8B5
:20FEAC00040008B9B06843E03878382148430BF0BFFB686020B900F08AF8D9F8040037E0EE
:20FECC003878DFF8C4AA00010BF0B2FBCAF8000028B900F07CF800F07DF8686828E0387884
:20FEEC00DFF8A8BA00010BF0A3FBCBF8000048B900F06DF800F06EF868680BF0AAFBDAF872
:20FF0C00000015E03878302148430BF091FBDFF8801A086088B900F05AF800F05BF868685E
:20FF2C000BF097FBDAF800000BF093FBDBF800000BF08FFB4FF4804144E0DFF8580A0068AC
:20FF4C008047074605F081F80BF0E0FDDFF8480A0069006880470BF0D5FD0BF0CFFDDFF80F
:20FF6C003C0A002101600160C160C16004F0BAFE0BF0B2FADFF8281A40F2FF7008600BF09A
:20FF8C00B9FD06460BF0B6FD864208BF0BF0AEFDD8F80C00697800880843DFF8081A08805F
:20FFAC003846DFF8041A096888470C21DFF8FC090BF098FD207800210BF01AF800F092F8A9
:20FFCC004FF400512078BDE8F44F03F0FFB8B0680BF03FBBD9F804000BF03BBB30B50C464D
:14FFEC00E00785B013D50BF079FD38B100218160DFF8BC0905
:020000040001F9
:200000000068010018BF8047DFF8A407007800210AF0F4FF84F001005EE0A00707D500F0AB
:200020005DF83C200BF05CFD84F0020054E06107DFF8800724D5DFF8581940688A784968AF
:200040004FF4907303FB0211382303FB02008D1D11F82C2F04924A8912090392AA8B0292FE
:200060000122C9884908019100F12C01009190F82830297800200BF033FD84F004002BE02B
:20008000210607D500F02AF83B200BF029FD84F0800021E0A10508D5DFF82409016841F0B9
:2000A0000041016084F4007016E0610504D50BF065FB84F480600FE0610405D581200BF004
:2000C0000BFD84F4804007E0A10443BF4FF0FF31816084F40050002005B030BD00200490C4
:2000E00003900290019000900146002301227047F8B504F0D7FEDFF8A808DFF8946800683E
:20010000DFF8747880470446002005F04DF840F201400BF0DDFCDFF88C080069C0688047A7
:200120000BF0F6FCDFF84C08DFF89818C06A806840790870002501F0F0FCDFF88C080BF075
:20014000C3FC0BF0BDFC0BF0B7FCDFF8800800210170017141718171C171017241720022FD
:20016000DFF8180800F10E010A70A0224A8007224A7103220A7100220A738A7200F8592FE3
:200180000122CA720021427081700BE070684FF4907101FB05004179012908BF01F0ACFAF2
:2001A0006D1CEDB238788542F0DB0BF081FC0AF0DBFB01F02DFADFF8181800200870DFF8FF
:2001C000141808700120DFF8101808700020DFF80C1808700120DFF8081808700020DFF8C9
:2001E00004180870DFF800180870DFF800180880DFF8FC17087004F090FEDFF8B817096892
:20020000204688470020F2BD2DE9F0411446DFF8685708B12A780270DFF8748711B198F8B2
:2002200001000870002C3ED0002600271CE0C9B2DBB2085502F1280001791955591C42792A
:2002400000F034F8827900F031F8C27900F02EF8027A00F02BF8427A00F028F80078C9B2CF
:200260004E1C08557F1CFFB2287887421BDA38460BF01AFC0028F5D1D8F804004FF4907178
:20028000F6B201FB0700DFF82C154968375538220068007802FB0712711C4B1C80280CBFA7
:2002A00000200120C3E70020BDE8F081C9B20A55491C704738B50C00054601D1122032BDF0
:2002C0000BF0F2FBC0B900F018F901FB050001680978402901D00C2032BD00210A5D431A97
:2002E000491C102983F8E220F8DB012180F8E410052101F091FA002032BD10B504460BF0C7
:20030000D3FBB0B900F035F801680978402901D00C2010BD00F1F0010A78012A03D10622E1
:200320000A77022102E006224A700D2101F074FA002010BD10B504460BF0B6FB60B900F017
:2003400018F890F8F810022907D1817900F1F902002008F0EBFA002010BD01680978802997
:2003600003D108210BF09CFBF5E74029F3D1112010BDDFF81C0640684FF4907101FB040002
:20038000704710B5040001D1122010BDDFF80006407808B10C2010BD01F03AF92078DFF832
:2003A000541600F01F0020704A7810404870002010BD38B50D00044606D0DFF8B805C06AA5
:2003C00080680079844201D3122032BD04F07AFE032803D0204601F0E5FB02E0DFF8E405BE
:2003E000047001202870002032BDDFF88815C96A89680979884201D312207047DFF828150C
:2004000008700020704710B5140019D011B1012908D015E001F0DFFB10F1800F20700DD149
:20042000302010BDDFF84C05C06A80680168007900EB4000401810F8030C2070002010BD6C
:20044000122010BD2DE9F0410C0082B0074690461D4627D0D74E3078404528D338460BF0D5
:2004600023FB002847D100F048F801FB070707F033FE1B2298FBF2F21B2303FB128303B183
:200480000123718810181818814204DA01200BF003FB07202FE030781C2814DA002D18BF18
:2004A000012D01D0122026E0B8F11C0F04DB8A200BF012FB30201EE02B4642462146384674
:2004C0000BF0E6FA13E042462146384601F00EFA88B920460AF0B3FCB879ADF800000DF1C4
:2004E00002020120ADF8020000A908F05BFA384601F0BBFA0020BDE8F681DFF894044068C3
:200500004FF49071704770B50646282E01DB122070BDDFF8DC44207808B1212070BD04F034
:20052000C1FCDFF88054286980688047700000F6621189B200200BF0A7FADFF8BC0440F676
:20054000070101804060002141808160017B01F060010173417B01F0F00141F002014173E7
:2005600002218173DFF89414016100214161C17B01F0F00141F00101C1730C2121702969EB
:2005800089698847002070BD2DE9F04104460D46282CB8BF262D16460FDA002E18BF012ED2
:2005A0000DD0022E18BF032E09D0042E18BF052E05D0062E18BF072E01D012205AE0DFF8E8
:2005C000308498F8000008B1212053E004F06AFCDFF82C74DFF82C1441F60A0038800022A7
:2005E000002078807F60B860387B00F060003873787B00F0F00040F0020078736000663058
:20060000B8738020F873DFF80004386179610280857040F6C4124260C670027A02F0FE028D
:20062000027200224272C260C27A02F0F00242F00102C272002008800021DFF8D003818051
:20064000C18004708021457086700172B648D54C007801F0A7FA092088F8000000222369A6
:20066000DFF8AC035B680021984721698969384688470020BDE8F08170B50446282C01DB93
:20068000122070BDDFF86853287808B1212070BD04F008FCDFF86863DFF87813766041F699
:2006A00009003080716100207080B0600022307B00F060003073707B00F0F00040F00200D2
:2006C000707360006630B0738020F073D248306102600F22027101224271C84A8260552229
:2006E00002734273827300220261C27B02F0F00242F00102C2730020088048808880002231
:2007000080208871002088600021C0484170FF218170047000218180C1808021A14C017275
:200720000A20287000212369B9485B6898472169896930468847002070BD70B5AC4C2078E4
:20074000092818BF0A2801D0212070BD40F202400BF0BEF92078AD49092809D1A9480088E8
:2007600088809848007801F01DFA0021002015E00A2815D1A74A538810889688CB801D18C1
:2007800075198D809279802A18BF812A0FBF7F22A24B93F90030D21A0A7201210BF070F981
:2007A0000BF0B6F90020207004F0B7FB002070BD844C0020344800208C4C00206C4C002090
:2007C000B63F0050F8B58A4C2178092918BF0A2963D00B291CBF0C290D295ED0674DA97CC8
:2007E000002918BF012904D003291CBF0229042903D12A79002A18BF012A7BD1032918BFAA
:20080000022902D12B8AA02B74DB002843D0012870D1A87B012840D000291CBF01290429AF
:200820000ED10BF029F9FD21084236D15248007800285FD056494978814201D10920F2BD17
:2008400001200AF0AAF8286000260120A87304F029FB0BF00DF97248182101FB0607387B29
:2008600040F080003873A87C012807D026B90BF047F900F5C87000E00020B860761C032ED7
:20088000E9DB207828B9A97C6648085C20700BF0EBF80020F2BDA87B08B92120F2BD40484B
:2008A0000068804706460BF0DBF8012804D00BF01BF92968884207D104F0F4FA40F202405A
:2008C0000BF006F9012700E000270020A873286804F06AFC28460BF0BFF8207810B904F055
:2008E0001CFB02E00FB10BF0BFF83249096830468847CEE71220F2BDE81200507C4C002094
:20090000017841F08F010170C17841F02001C170817841F0300181700020704710B11C4927
:200920004978017000207047854C0020744C002070B504460D4616460BF0B6F830B9FFF737
:2009400018FD00F58E7005704680002070BD0C4B10B1012802D00AE019807047188810709A
:200960001888000A507000209070D0707047122070470000F4C20100BC4C0020EC490020D9
:20098000984C00208B4C0020964C0020F44E0020B04C00200C4F00201C4F0020104F002057
:2009A000484800202C4F00201010044000000460944C00204C480020E84E0020C44C0020EA
:2009C00004000940B94C00208C4A00209C4C0020864C0020BA4C0020874C0020884C0020A8
:2009E000BB4C0020894C00208A4C0020BE4C0020B84C0020D04E0020404E0020294176715A
:200A0000284E0020204F0020A84E0020DC4E002002000080C44E0020844E0020C04C00207F
:200A2000244C0020C0D9001070B5DFF8C8592878062460430AF002FEDFF8BC19086008B924
:200A4000132070BD0020FF2206E03380401C0023F270B2703371C0B22B78984209DA0B6870
:200A600004FB003600280CBF4FF6FE734FF6FF73EBE70FF2A14008F001FA0FF6A90009F093
:200A800051FC0FF6E90008F089FE002070BD70B50446208868B160680378426800F073F9D6
:200AA00048B9606803784268DFF8500900F06DF908B9022070BDA078C01F0A2801D318207D
:200AC00070BDDFF83C59288820B12188C0F58030884201DA012070BD0C200AF0AFFD060023
:200AE00001D1132070BD002007E06268298802EB0012401C5181491C298080B22188884262
:200B0000F3D30020306008222146301D02F04CFA686810B96E6004E0084601680029FBD152
:200B20000660002070BD38B502460846DFF8D0184C68002301E02346246894B1A5686D89CB
:200B40009542F8D12268002B0CBF4A601A6018B10822211D02F028FA20460AF080FD00200F
:200B600032BD012032BDDFF89C180870704710B5044610461422114203D000F00FF90122E0
:200B800004E04A0608D500F009F9002201462046BDE8104008F0D7BEC80701D4022010BD6E
:200BA000002010BD70B504460D46A8061E4609D5104600F0F3F801462046BDE87040012240
:200BC00008F0C1BE882005420FD0104600F0E6F8014605F00802204608F0B5FE48B1717A71
:200BE00041B1317A012904D070BDA80701D4032070BD002070BD7CB50446002000900D468E
:200C00000223DFF804284FF6FF71012000F02CF8060026D0002304221D21204608F066FA81
:200C20000190E0B170890199ADF800002B460420ADF80200002201200870002001994870F1
:200C4000FF20019988700199C87000A9204600F007F9040006D001980AF0F1F802E01524A1
:200C600000E00124204676BD2DE9F0478146DFF8900744688A4690461E4600E02468F4B18D
:200C8000002700E07F1CA088BFB28742F6D2A06800EB07156889484528BF8245F2D33EB199
:200CA000297868683346424605F020FF0028E9D0089810B1A16849890180284600E00020A2
:200CC000BDE8F087F0B5DFF83827536800E01B68D3B19D686E89B042F9DB9F88BA199042ED
:200CE000F5DA4FF0000C01E004F1010C1FFA8CF4BC42ECD205EB0412B2F80AE08645F3D179
:200D000001B10E801046F0BD0020F0BD2DE9FC4104460027ADF804704FF6FF7860894045BC
:200D200015461E4608D001AA0092401C2378626880B2FFF799FF07462378626800F023F8A1
:200D400030B923786268DFF8B40600F01EF808B160890CE023786268DFF8B00600F015F831
:200D600058B11FB1BDF80400A84203D0284600F0C7F803E07889404400E0608906B130806F
:200D80003846BDE8F681DFF88806022105F0AEBE80B500F08AFA00B1008802BD80B500F00A
:200DA00084FA08B1807802BD102002BD70B5012982B00446154616D0032918D0052925D013
:200DC000072927D0092929D00B292BD00D292DD00F292FD0112931D0132933D0172934D06A
:200DE000192936D039E0294609F09FFA33E009F0F9FCADF8000000A9204609F09FFA060044
:200E00002CD12988204608F01BF927E0294609F0A1FA20E0294609F0B5FA1CE0294609F02D
:200E2000C1FA18E0294609F0D3FA14E0294609F0DDFA10E0294609F0E7FA0CE0294609F00A
:200E4000F2FA08E009F000FB05E0294609F002FB01E009F00CFB064600E00226304676BDA2
:200E60002DE9FC410D46044616461F4601A900F029FA5FEA00081DD156B100F037F8BDF8EA
:200E80000000FFF78BFF00F036F85FEA000811D12946204609F0FCFA5FEA00080AD1019CF4
:200EA000FF2F07D0A31C1E2221460FF2954008F0A9F8E7704046BDE8F6817CB50D46044691
:200EC000164601A900F0FEF917280ED04EB1002000F00CF8BDF80000FFF760FF00F00BF8F8
:200EE00018B92946204609F0C8FA76BDADF8000000A92888E6E601460122204608F023BDEC
:200F000010B50446FFF744FF08B1611E0C18A0B210BD00002DE9F0470D468046A878002464
:200F20001E2888B0914614D1404600F0DFF904001EBFA078FE28FF2822D00020009000221F
:200F4000AB78E078414608F032F8204600F0E2F916E0122804BF6878012813D0404600F0E7
:200F6000C5F904001CBF2279002A0BD0100607D4A978404608F077F8207940F0800020715B
:200F800000206BE0DFF87C743878FF2817D0A978881E172813D20FF27C4A48080AEBC000AA
:200FA000A0F10806306800281CBF7068002806D0287810B96A78012A03D1122901D00620A5
:200FC0004CE002A90091AB88AA6869783668B047060042D1AA7852080AEBC20202A952F8AB
:200FE000042C4046904706001CD1AB78042B34D002A8009000223878414607F0D8FF0600B4
:201000002BD1A97802A808F047F810B1002089F80000A878122804BF697801291DD0E4B1C6
:2010200020711AE06878C0B9A8788DF800008DF8046000A9A878042818BF0628BDF8080087
:20104000ADF80200404609F070F928B100AB01221621404607F0EAFF0026304608B0BDE8C4
:20106000F087002070472DE9FE430D46804628886988814200D308B901206AE00021ADF889
:20108000041002914FF6FF7900E0401C002100910A466988002380B2FFF7E6FD070034D084
:2010A000BDF80400002835D100AB4A460521404608F01CF8040001D111204AE002943878DF
:2010C000022806D101208DF80600BDF80000860824E002208DF806001221BDF8000090FBFC
:2010E000F1F6788904F8010B102200F034F81034BDF80400401CADF80400B6B2BDF804008F
:20110000B04202D278894845BFD1BDF8040080B90A201EE09DF806000128E2D13878022880
:20112000F3D1788904F8010B022200F014F8A41CDEE701A9404609F00DF948B101AB052242
:201140001621404607F072FF10B1029809F077FE0020BDE8FE837889000A04F8010B2046E2
:20116000796801F021BF10B582B04C880888844200D308B9012016BD00F015F808B90A202C
:2011800016BD002016BD10B582B04C880888844200D308B9012016BD00F005F808B90A2008
:2011A00016BD002016BD002200924A1D0B7921465AE510B5044682B0084600A90088FFF76E
:2011C00081FD08B9012016BD017ABDF800202046FFF7CDFC16BD70B582B006460D4600247A
:2011E00001E0641CA4B2A888844229DA286810F8142000EB440000A9407802EB002080B2A4
:20120000FFF760FD50B9286810F814100170286800EB440149784170012076BD017ABDF88F
:2012200000203046FFF7A3FC0028DAD0296811F814200A70296801EB440252784A7076BDEF
:20124000002076BD10B50C4682B020886188814200D308B9012016BD23796D48621DFFF750
:2012600094FD08B9102016BD00200090237961882088621DFFF7F8FC08B90A2016BD0020F5
:2012800016BD38B504460D4600A92888FFF71AFD08B9012032BD017ABDF800202B46204693
:2012A000FFF780FC32BD002070475549496800E0096829B18A6852898242F9D1081D704745
:2012C0000020704710B50C4600F010F860B104B120608078FE2801D1172010BDFF2801D1F5
:2012E000002010BD162010BD022010BD10B5424A1268002100E0491C3E4B1B78C9B299426C
:2013000006D206234B439C5A8442F4D1981810BD002010BD10B50446A01C07F07BFEFF20F9
:20132000E07010BD10B50C46FFF7E0FF30B101794A1C944204BF01F08001017110BD000099
:2013400010B582B004001EBFA078FF28FE280BD0002000901E232188E078172207F027FE2E
:20136000FE20A070FF20E07013BD000070B504464FF6FE70844282B036D04FF6FF7651B91C
:201380002046FFF7B3FF78BB3046FFF7AFFF05002AD0048073BD012906D12046FFF7A6FF3D
:2013A000050021D02E800BE002291DD10121204608F088FAC0B92046FFF798FF050013D02F
:2013C000A878FF280ED0FE2807D0002000901E23E8781422214607F0EAFD2846FFF79AFF22
:2013E000FF20A8700020287173BD70470448008870470000B4480020A048002020A901009D
:201400002C4700204547002058A9010028A901001CA90100DD660100631001000F670100C4
:20142000671001008D67010067110100196801008711010079680100B3110100E9680100B2
:20144000B311010027690100D71101001968010045120100996801008312010000000000DB
:20146000000000008369010083120100036A0100A71201002DE9F843099D002600274FF638
:20148000FF7835F8174044451CBF761CF6B27F1C062FF6DB00270DE00CF1010C5FFA8CFC13
:2014A000E646B64505DA35F8179035F81EE0F145F2D1E7B2B74208DA35F81740444504D0D9
:2014C000A14202D37C1CA446E8E7B7420DD176B1884202D04BB1994207D3089811460AF0C7
:2014E000B7FA47F6FF71884201DB012000E00020BDE8F2832DE9F843DFF86C08DFF86C9836
:20150000017899F80000884200F07F8000204FF4907301E0401CC0B2884276DAD9F80420E4
:2015200003FB002808F104063278002AF2D1DFF840180968B070382202FB001101223270FE
:2015400008F161070022727001207871F872B280F280307388F8392008F18E007261327690
:20156000728302702031FA770A75FF258022FA7408F1E80400227A75BA760D706276A276FC
:20158000E2762277E283228488F80B21027108F1E3000270427022606260A27222732272AF
:2015A00008F587706273028042808280C2800A720A734A738A73CA730A744A740421FF2268
:2015C00008F1770009F096FD3D707D70BD70FD701F2038710020DFF89C17421800EB0803F9
:2015E000527883F8F920401C0828F6DB0020207499F80000401C89F80000C0B2012804BFB0
:20160000B07889F80200404600E00020BDE8F28310B5DFF860470821601C09F06AFD60785F
:2016200040F00100607010BD70B5044609200AF00BFA58B300F089FB0A30C0B2E880002191
:2016400005F10806296029716971032030700822092006F8010F04F1F901701C01F0A4FC59
:2016600094F8920028B133460922032120460AF0E7F903F027FDDFF800371B69DB6C024633
:20168000A06E294698470020E083012070BDF8B505460E46DFF8E446DFF8DC7608E0007A45
:2016A00003281CBF481C20703969A86E496D88473969A86E096E8847217810B10279032AF3
:2016C000EDD0DFF8BC0600781C2814DA99B1DFF8B4060078814205D2012E0CD1DFF8A8068C
:2016E000007840B1A879ADF80000ADF8021000F069F800202070F1BD2DE9F8430446DFF8E3
:201700008C06DFF878660068DFF86C7680478046002003F049FDA06E00B306E0007A00F06A
:2017200057F83969A06E496D88473969A06E096E88470028F2D13969A06E496E88470546C3
:2017400006E0287A00F044F8284609F078FB2D68002DF6D13969A06E096D8847206FA0B19D
:201760003969096E88470546A946D9F8080020B109F065FB0020C9F80800D9F80090A9450C
:20178000F3D13969206F096D8847DFF8F40500781C2808DA307840B1A179ADF80010ADF894
:2017A000020000F00FF80020307020460AF044F920460AF051F9DFF8D8150968404688479F
:2017C000BDE8F1830DF1020200A9012007F0EAB8032802D03078401C3070704770B50446C4
:2017E000DFF8A8050068804704F17601FF234A79521E4A71D2B20AB94B7008E00022151980
:201800007735521C6E782E70032AF8DB0B7100220A70BDE8704011E038B50446DFF86C054D
:2018200000680D468047002204F176010A704D704A790AB901224A71BDE83440DFF85015A8
:20184000096808472DE9F04100260027DFF81C45DFF8148508E031684968806889680AF087
:20186000E7F800B92E467F1C98F80000FFB287420CD260684FF4907101FB07052868697953
:2018800040680029EFD0002EE5D1EBE7B079BDE8F081F0B54FF6FF710C460023DFF8CC242D
:2018A00003E0A64298BF34465B1CDFF8BC542D78DBB2AB4216D255684FF4907606FB0355C8
:2018C0006E79002EF0D005F180068C42377804D1002F0CBF6C8E3489E6E7002F14BF368926
:2018E0006E8EDEE7A04288BF2046F0BD2DE9F84304468846164600270FE02A46414601F028
:2019000053FB3846471CC3B203B101232A46494620460AF0BDF8A844761BB6B276B11C2EE1
:20192000ACBF1B25F5B228460AF07EF85FEA0009E3D181200AF0D0F8072000E00020BDE842
:20194000F2832DE9F04DDFF82474DFF84864DFF848A40C46154679684FF4907282B002FB08
:201960000018307801289B4602D0022830D068E0B068BBF1020F04D100F070F80020B06027
:2019800029E07388B188EA18914205DA00F066F80020B0608B2052E02A462146181801F003
:2019A00003FB70882818708080B2B288904248D198F87400802817BF81287F209AF800103E
:2019C000401A00F043F80020B0807080022033E0BBF1020F35D1042DB8BF8C202FDB217853
:2019E0006078091D41EA0020DFF89413B08080B20978814238BF8A2021D3A84238BF8B2059
:201A00001DD30AF00DF8B060C0B12A46214601F0CBFAB28895420BD198F87400802817BF5A
:201A200081287F209AF80010401A00F00FF808E07088281870800120307002E081200AF01D
:201A40004BF82046BDE8F64D09F0F9B940B200905B46B168B878D2B209F01CBA0021B18039
:201A600071800221317009F0EAB92DE9F84304462068007840284ED1E08B00284BD0C74836
:201A80000078012847D103F00DFAC0480068804705460AF035F8618E40F6C418891C08FB41
:201AA0000109B24A2068A1799278476891422CD1B868494609F0BCFF48B30AF015F8064644
:201AC00040F202400AF004F8304603F06DFB3169484609F0A1FF618E08FB01F2B0FBF2F098
:201AE000228980B28218628148432268126908FB0020B86004F1380041780170204600F014
:201B0000BAF8304608F0BAFF01E00069B8602846BDE8F44392E6BDE8F18330B587B040F65D
:201B20000200ADF800000020ADF8020001900290ADF80C0001208DF80D000020ADF80E00DD
:201B4000974C984D2088984A1278ADF8100002EB4202E86A816809685118B1F80110ADF84F
:201B60001210854940680969059000A8C9698847012807BFBDF80200B0F5806F892000F04A
:201B8000EBF8E868894A418812781143218000788149800643BF86480068400A0020087015
:201BA00007B030BD10B582B004461020ADF8000004EB44017B48C06A8068006808186E4923
:201BC000B0F801000969ADF8020000A8896988477548047013BD73487349C06A80680978CF
:201BE000006801EB41010856704730B50A7902F01F020A71002280F83A200023545C24FA5F
:201C000003F5EC070BD590F83A502D1803EBC20485F83C4090F83A40641C80F83A405B1C0A
:201C2000082BEBDB521C052AE7DB30BD10B500F138025378D47801FB0431252391FBF3F36D
:201C4000252404FB131111700023117800E05B1C9478DBB2A34206D21C1894F83C40A1421F
:201C6000F5D1084610BD91FBF4F204FB1211081890F83C0010BD70B5044604F1380004F1AD
:201C80008E06017841706089218909F0E1FE05463078012801BF70882189491C884206D197
:201CA00004F161012046FFF7A0FF0020307029462046FFF7BBFF21680978402904BF3D49D1
:201CC000887370BD80B580F8F12009F0A1FE38B939480078BDE804404FF4804101F07CBA88
:201CE00001BD70B50446022009F0AEFE60B300F02CF8C01CC0B2E880002105F10803296068
:201D00002971697103201870022003F8010F94F80C01587094F8920020B102220321204679
:201D200009F08EFE03F0CEF9134B1B69DB6C04F16806024630682946984704F10E00002186
:201D400001820088F082012070BDA0F1090594F8920000B10420704780B509F0BDFE174926
:201D60000020087001BD0000BC4C0020B04C002038480020D04E00202C4F0020BA4C00202A
:201D800034480020874C0020884C0020484800204C4800200C470020C04C0020BB4C002096
:201DA000944C0020F4C20100B94C00203548002080130050E04D0020844C0020B84C002066
:201DC00010B5817921B3891E1AD0491E12D0891E0AD0491E18BF01201DD1037A817AC26826
:201DE0001846FCF7B8F910BD027AC1681046FCF7E2F910BD0289C1681046FCF78BF910BD30
:201E000084688189827B03692046FCF759F910BD8068FCF72BFA10BD0246907970B1401F4D
:201E200008D0401E18BF01200BD1107A917AD26806F0A0BE107AD16806F0DCBE906806F034
:201E4000F7BE704738B50D46014688790024103818D0C01E11D0401E0BD0401E18BF0124E8
:201E600014D108898B7ACA681946FEF79FFF04460CE0886807F011F807E00889897A07F02B
:201E800006F802E0087A06F0FFFF2C70204638BD2DE930418846817915460024091F3AD0F5
:201EA0000C3934D0491E2CD0491E27D0491E1ED0491E13D0491E0ED0891E18BF01242FD191
:201EC000037AC16802691846FDF7E0F8884945460870012023E0FDF7B7FB1FE0047AC16883
:201EE000028A837C2046FDF753FD044618E00389817AC2681846FDF7B0FDF6E707F00CFDDE
:201F0000E4E70289817A104607F0DCFCDEE7007A07F068FD02E08068FDF7B5FD2046287042
:201F20002046BDE83081012070472DE9F84308AF3E788146984615460C4606F10C0080B2C8
:201F400001F000F8071C16D08020387087F8018040F27F637B806649BC803246BD7107F1AF
:201F60000C00FE7107F10C03BB6001F01DF84846394601F0EEF8BDE8F8832DE9FE43044619
:201F800000250120A688A7798DF8055094F802808DF80400311C1BD0491E12D0491E0BD079
:201FA000491E05D0491E15D12046FFF709FF11E02046FFF731FF0DE0204601A9FFF742FF83
:201FC00008E020460DF1050101AAFFF761FF01E0FFF7A9FF8146204600F0C9FF9DF80400B1
:201FE00040B19DF8050031463A464B4600904046FFF79BFF2846BDE8FE8308B5034600226C
:20200000801E012812D9801E0DD0202B10DB602B04DB802B0CDB902B0ADA0AE01846FDF786
:202020003DFD024605E0042902D102E0102900D00222104608BD60B19222AC498271AC4B6B
:20204000016014224281198881800323038100207047022070477CB5401E15460C4616D008
:20206000401E08D0401E40D0401E3AD0401E2BD0401E19D016E0207A617A0546FFF7BDFF4C
:20208000002832D1E268284605F0FAF97CBD207A617A0546FFF7B1FF38BBE268284605F036
:2020A00080F87CBD01207CBD4FF6FF70ADF80000FFF79CF90222ADF8000069460C482A70CB
:2020C00000F072FF00207CBD09F01CFA04239E492B70020A0A72C871060C4E72040E8C72EB
:2020E000F0E7A068FFF7A7FF7CBD02207CBDC0464F47002030B511280B461546ADF1140D8C
:2021000003D9303807280BD952E0DFE800F0A55151A051519B9490518A85807B756E69652B
:20212000DFE800F03B205551184E480418890446FDF7D3FC0146A4F2014040B1001F04D085
:20214000C01E14BF0120042002E0102000E0022028708BE0187A03F0D1F9039030B3042287
:2021600003A914E04FF6FF741889ADF80840FF2807DA262805D0272803DA06F039F8ADF856
:202180000800BDF80800844210D0022202A96F482A7000F009FF002168E01889262805D08F
:2021A000272803DA598906F015F85EE002215DE001215BE01889997ADA68FDF7EDFC54E00C
:2021C00003F0A6F951E0986803F058F94DE09868D96808F04DFF48E0986800F090FA44E080
:2021E0001889997A00F034FB3FE01889997ADA681B7C00F07BFB38E01889997ADA6800F0FC
:20220000B6FA32E01889997A08F0D4FC2DE0D868198900F02CFB28E09868D96800F0CBFA7C
:2022200023E0187A59891A7B00F02CFA1DE0187A03F0FEF819E0187A597A9A7ADB6803F05C
:20224000C0F812E0187AD96803F06CF80DE0187AD96806F009F808E01869009058690190A8
:20226000597A187ADB6809F00BFA014605B0084630BD80B50B46074618891B3F09D0BF1EFD
:2022800018BF012009D1D9681A7C5B7CFEF7E8FD80BDD9681A7CFEF710FE80BD0246CB6815
:2022A0000889511E13D00A390ED0891E09D0891F05D0891F18BF01200CD108F0D8B808F020
:2022C000C3B8194608F092B8194608F081B8194608F02BB87047122805D10889CB680A7C07
:2022E000194608F03CBA01207047C0460001020034C3010010B50446C4F3C21048B1401EC9
:202300001DD0401E16D0401E0FD0401E08D0401E01D0012010BD04F07F00FFF79CFE10BD2C
:2023200004F07F00FFF7E6FE10BD04F07F00FFF7A0FF10BD04F07F00FFF7B0FF10BD04F0D5
:202340007F00FFF7C8FF10BD484700204F47002042F20702824236DB824200F0E58041F2B1
:20236000020282421BDB824200F0EC80A0F21D40002800F0F780A0F2E470002800F0EF8094
:20238000801E00F0EA802A3800F0E380363800F0DD80A0F29E30002800F0D6804DE0521C6C
:2023A000801A00F0CD80801F00F0C880B0F57F7000F0C180A0F6FC30002800F0B980801EF9
:2023C00000F0B48039E01032824216DB824200F09580083A801A00F0A580401E00F0A080A1
:2023E000401E00F09980401E00F09280C01E00F08C80401E00F086801FE0521D801A7BD095
:20240000401E76D0401E6ED0401E6AD04DF6E232801A1F2811D8DFE800F0615E10105A577C
:2024200054504E4B4946434110103E103B3733102F291026221F1C1018120120704788683C
:20244000CB680A69194607F044B8087A897A09F0DBBA087A07F0D8B8088907F0ECB8087ABA
:20246000498909F0CDBA087A09F0C6BA08898B7A8A89194607F0F1B8087A498909F0B8BAA8
:202480000889C96809F0B0BA0889897A09F0A8BA088909F0A1BA087A09F09ABA09F094BA2D
:2024A000088909F08DBA886809F086BA09F080BA087A09F079BA09F073BA087A897A09F09D
:2024C0006BBA087A09F064BA886809F05DBA8868C96809F055BA087A09F04EBA087A09F017
:2024E00047BA09F041BA087A4B7A8A7A194607F05DB8087A07F063B809F032BA8868C96897
:2025000009F02ABA088907F03CB8088909F020BA087AC96809F018BA087AC96809F000BB19
:2025200009F002BB09F00CBA09F006BA09F000BA886807F094B8088909F0F6B909F0F0B9AC
:2025400009F0EAB906F0BBBF07F0A4B8886807F03FB80889897A09F0DBB906F09FBF8868D9
:2025600009F0D2B9088909F0CBB970472DE9FE430446012000253F218DF80400A679A77804
:20258000A0888DF805508046B1EBA82F02D1C8F3C21119B92146FFF7DBFE05E021460DF14D
:2025A000050201ABFFF7A6FE8146204600F0DFFC9DF8040040B19DF80500414632464B4622
:2025C00000903846FFF7B1FC2846BDE8FE83F8B50C46E00BC00308BF002027D02848007843
:2025E00000F025FD071C1ED0234D2968012649B1B1F1FF3F06D02148007800F0AAFD4FF029
:20260000FF3028603878813805D0401E07D13846FFF7B3FC02E03846FFF7A8FF064616B15C
:20262000384600F0A4FC84F40044A0B2F8BD10B50C4601462046491E07D0491E02D008F096
:20264000E5FB10BD03F0E8FC10BD1946029B14460246204606F04AFD10BD10B504460846BE
:20266000012C114602D106F07DFD10BD08F0E7FB10BD0349087070473C4800208448002014
:20268000484700202DE9F04104468846122740464FF6FE7188421646DFF88C5808D1A869EE
:2026A00050B30268100027D041462046904720E04FF6FF71884212D1A86938B1026810000C
:2026C00004D0414620469047070005D03146204600F07CFA07000FD12C706E700CE007F0FF
:2026E000C3F848B10078A04205D13146404609F003F9074600E003273846BDE8F08110B554
:2027000004462389E288A188608884B006F0A8FE08B9022029E02088012107F0D3F808B93F
:20272000142022E0208807F0DEF8042812D1DFF8F80781894FF6FF72914218BF112014D189
:202740002188818161888180A188C180E18801812189418100200290019020890090E3883C
:20276000A2886188208806F047FF04B010BD70B50C46DFF8B8170978022918BF01291546BC
:2027800001D1122070BD0DB9022070BD07F06CF8060001D1142070BD1CB1307940F00200B7
:2027A00030711022294606F1140000F0FDFB28697062002070BDF8B506000C4601D102203B
:2027C000F2BD308807F050F8050001D11420F2BDDFF858070078022818BF012803D0287B4B
:2027E000082802D10CB11220F2BDDFF83C77786908B11120F2BD2C2008F020FF786108B937
:202800001320F2BD2C2200F096FA7869318841801C22311D001D00F0C7FB796902200870D6
:20282000287B7969328808280CBF012000200B1DDFF8FC16097800F04FFF06461CB12146CD
:20284000284601F00BF90EB100F035FA3046F2BD38B504460D4607F007F808B9142032BDAE
:202860008DF8005000A9204601F032F832BD38B5002298B101230624251815F8015C303DB0
:202880000A2D0BD203FB05220A25641E6B43E4B2002CF1D11046BDE8344001E0022032BDBB
:2028A00030B505460C4685B0204606F0DDFF08B9122019E0DFF87C06854228BF022013D22F
:2028C0001022002100A800F06DFB280A8DF801008DF80050280C8DF802002146280E8DF83B
:2028E000030000A800F03BFF05B030BD2DE9F0418046DFF838060078022814BF012812206F
:2029000082B00C4615461E462BD00DB9022028E0404606F0A9FF070008BF142021D0B86A50
:2029200008B108F09CFE1C21284600F08FFE0100B96208BF132014D0387B082809D146B176
:20294000887E009001F112030A8A404601F0B0F800E00020397941F004010CB141F002014E
:202960003971BDE8F6812DE9F0410D4606F07CFF04001ED0656200F0E1F9C5B205B9257831
:20298000666A94F80580102000F0DCFA070010D0D0203870062200207870A11D0920B870A2
:2029A00087F80380381D00F0FFFAFE60394628461EE0BDE8F0812DE9F04104460D469046BE
:2029C0001F460E2000F0BEFA06000FD0D020307006220020707041460C20B070B580B01D4A
:2029E00000F0E2FA37733146204601E0BDE8F081BDE8F04100F0ADBBF0B5040087B051D05E
:202A0000A079DFF82455002828690CBF0826042608B9DFF824050778DFF82005006820B1FC
:202A2000416808001CBF00208847E07904F1080105F0EEFC217DE07105910246618A049198
:202A400004F10803218A0391E18902910196A18800913946E07800F056F8E07870B917201C
:202A600003900122E0890290019604F108000090E379A188384606F0A0FEE070286908B150
:202A800000F031F9287868B1697800F09FF848B1E378312B04D0A2882978184600F061F805
:202AA0000020287007B0F0BD70B505460026A88806F0DAFE18B10678A88806F0ABFEDFF879
:202AC0006844207838B1864205D1617800F07EF840B1002020702EB1AB79AA88A87831467F
:202AE00000F03FF8606908B100F0E5F8A88806F0FAFE042802BFA888A189884204BF4FF629
:202B0000FF70A08170BD2DE9F0410646884617461C46162000F016FA050020D0D020287025
:202B20006E700520A870EF702CB106222146281D00F03AFA04E006220021281D00F032FAB8
:202B4000069868812946079828730898E881099828820A9868820B982875404648E7BDE8CB
:202B6000F081F8B504460D4616461F46082000F0E9F948B1D02101704470062181708680B2
:202B8000877101462846DCE0F1BD2DE9F04180460D4616461F460C2000F0D4F9040013D02D
:202BA000284606F061FE08B9DFF88C030078D021217084F801800721A170A580E6802781C8
:202BC00006996181214613E7BDE8F08110B50C4606F05EFE28B12146BDE81040408808F09F
:202BE0008BBE122010BD2DE9F84F0746894692461C46484606F038FE5FEA000B1EBFCA4DD8
:202C00006969002955D00A6A182002B134208A6A02B1143004B11C30496A01B1163080B218
:202C200000F090F9060044D0182200F084F800F085F85FEA000808BF9BF80080D020307033
:202C400077700A20B070A6F8049086F806A006F118076969086A38B1B7603846096A00F1B1
:202C60001C071C2200F0A0F96969886A38B1F7603846896A00F11407142200F095F93CB148
:202C80003761384600F11C071C22214600F08CF96869416A29B177611622416A384600F071
:202CA00083F931465FFA88F000F053FABDE8F14F01E0BDE8F18F10B59B4C606990B1006A08
:202CC00008B108F0CCFC6069406A08B108F0C7FC6069806A08B108F0C2FC606908F0BFFCF6
:202CE0000020606110BD10B58F4C206918B108F0B6FC0020206110BDF8B504460D46284664
:202D000006F0B2FD060015D000F018F8070008BF3778062000F016F906000BD0062200F088
:202D20000AF8D020307074700E20B070B5803146F8B206E0F1BD002100F034B9262005F0AC
:202D400057BABDE8F44000F004BA2DE9F84305460E4617469846304606F086FD5FEA00096F
:202D600021D0102000F0EEF804001CD01022FFF7E2FFFFF7E3FF08B999F80000D0212170B7
:202D800065700F21A170A680277284F80980C0B20899A1720999E1720A99E1602146BDE84E
:202DA000F44300F0D6B9BDE8F1832DE9F0410746884606F059FD040022D00E2000F0C2F8C8
:202DC00005001DD0FFF7BAFF060008BF2678D0202870062200206870A11D0B20A870E81C3A
:202DE00000F0E2F818F0010118BF012129736F8118F0020118BF01216973F0B22946F7E5AD
:202E0000BDE8F0812DE9F14F90460D469946404606F02AFD07000A9EDDF82CA0DDF830B096
:202E20000D9C3ED09DF8000000283AD1387940F010005FEA49714CBF40F0020000F0FD00F5
:202E4000002E08BFBAF1000F08D1BBF1000F08BF002C03D100F0FB00387122E040F004009E
:202E600038713CB1206978621022214607F1140000F09AF83EB135B9B86A08B108F0EFFB98
:202E80001C2130460AE0BAF1000F0AD0012D08D1B86A08B108F0E3FB1C21504600F0D6FBB5
:202EA000B862214D6869002839D06EB1006A20B91C2008F0C3FB696908626869006A18B1F4
:202EC0001C22314600F070F8BBF1000F0ED06869406A20B9162008F0B1FB696948626869D1
:202EE000406A18B11622594600F05EF874B16869806A20B9142008F0A1FB69698862686934
:202F0000806A18B11422214600F04EF89DF8000053464A46414601B0BDE8F04F63E6BDE863
:202F2000F18F074908607047A8460020754600200047002040420F0074460020044700207C
:202F40009848002010B5041C05D004F10C0080B208F074FB08B9002010BD00210160048168
:202F6000FF2383720C3010BDB8480078704708B5002808BF052009D010F8021CFF2918BF33
:202F8000042003D10C3808F06AFB002008BD10B580F08004022C01DB00F09FF9AB48001D58
:202FA000005D10BD08F0A9B8034610461A4628B111F8013B401E02F8013BF9D11046704706
:202FC00028B142B1401E10F8013F994201D000207047521EF7D10120704710B5401E491E62
:202FE0004AB111F8013F10F8014FA34218BF002002D1521EF5D1012010BD70B5BD4D0446E9
:2030000028680E468047BC4A1168A14219BF54F80C1C46F80C1C54F80C1C1160FF2604F8EB
:20302000026C002144F80C1C6968884770BD2DE9F041B04E0546306880478046AE480068BD
:2030400000273C46844212D010F8021C8D4208D134B160B128464FF4004100F0BDF80BE0D9
:20306000044604B9074650F80C0C0028ECD128464FF4004100F0FDF81CB120463946FFF738
:20308000BCFF7168404688472046BDE8F0810346104641181A46491E28B111F80139401E92
:2030A00002F8013BF9D11046704738B5C24C0546241D2068804700218F4A45F80C1C116855
:2030C00011B9156006E0114651F80C2C002AFAD141F80C5C6168884738BD38B5B64C054696
:2030E00060688047594A916845F80C1CA1689560884738BD70B5164605460C1C08BF052599
:2031000025D035F07F0001D000F0E7F80A2DA8BF032507DA54F80C0C18B914F8020CFF2859
:2031200004D005252046FFF722FF10E0012E04F8025C03D02046FFF7B8FF02E02046FFF777
:20314000CCFF28464FF4004100F046F80025284670BD70B502460D4632F07F0004D1104638
:203160000022FFF7C7FF70BDFFF7FEFE37494C78AE1EFF2802D0896A4018847AFF2C02D102
:2031800000F0ABF80DE01046FFF701FF01462A46FF203070204600F008F820B12846FFF762
:2031A000E6FE012070BD002070BD00B5ADF1140DADF804000823ADF80030ADF80610002098
:2031C0008DF8080006237C4803920168ADF802306846884705B000BDF8B506460C4636F040
:2031E0007F0014D10A2E10DA734D68688047B949096831F81620144321F81640A96888477A
:20320000B548006800F04AF831E00320F8BD0420FFF798FE071C08BF042029D04FF6FF70C3
:2032200038807C80FFF7A0FE08494C78BD1EFF2802D0896A4018847AFF2C09D13846FFF79B
:2032400096FE00F04AF80120F8BDC0462C4600203046FFF79CFE01463A46FF202870204650
:20326000FFF7A3FF18B13846FFF781FEEBE70020F8BD70B506460D460A2E0DDA974C6068C5
:20328000804794490A6832F81610A94322F81610A1688847002070BD032070BD0EB508213B
:2032A00001908E48ADF800100B21ADF802100168684688470EBD70B5884C0546241D206851
:2032C0008047854906464869A84202D10868FFF7E5FF61683046884770BD08B50820ADF890
:2032E00000000C20ADF802007C4801686846884708BDC0464848002034460020C34A08B572
:20330000002112F8013FFF2B04D1107041F08001C8B208BD9842F9D0491C0229F1D3FFF7E5
:20332000DCFFFF2008BD10B504466088002818BF6FF0010008D1E088FFF7E0FF2072FF28A9
:203340000CBF6FF00300002010BD10B5142008F075F9C54CA062A06AFF211422FFF722FE6B
:20336000FF210222201DFFF71DFE10BDBF4A12681154121891727047BC4A12688018817217
:2033800070470EB50820ADF800001220ADF80200C94801686846884701980EBD0EB50820C7
:2033A000ADF800001420ADF80200C34801686846884701980EBDC046444800200EB508209B
:2033C000ADF800001520ADF80200BB4801686846884701980EBD10B5A44C0020283CA060E6
:2033E00006F016FE07F03AFEFFF7AFFF07F07DFBFFF7C7FF6061FFF7D1FFA061FFF7DEFF6A
:20340000801EE06110BD10B5984C0821ADF1180DADF80010283C04901B21ADF80210206A41
:20342000029001210191A549A34803910168684688470299216206B010BD7FB506460820AA
:20344000ADF800000720ADF802009D480D460168144668468847BDF804103180BDF806103C
:2034600029800299216000907FBD804909680022491E11F8013F984208BFD0B203D0521C4B
:203480000A2AF6D3FF2070470EB5082101908C48ADF800101C21ADF8021001686846884779
:2034A0000EBD10B5ADF1180D019084486E4C0390206A0491082202908148ADF80020132271
:2034C0000168ADF80220684688470298206206B010BDC046B04800203C4600204448002034
:2034E0002DE9FE4306F098FDFFF74BFF5E4DAE696C69B6F57A7F13D04FF47A78001B002319
:203500004246A6FB000106F013FE07460023424608F01DF93246002306F00AFE001900E0E2
:20352000071B6861384607F05FFF00241CE0BDF80600FFF79AFF0646FF2E13D0009810F867
:20354000080CFFF7DBFE009911F8062C012A03D0022A08BF887000E0087000993046FFF76E
:20356000F8FD01E0FFF7B9FE01A80DF106016A46FFF763FF0028DAD052480168804631F84E
:203580001470514E27B9641CE4B20A2CF7DB1FE00A2C1DDA30688047D8F800106700002216
:2035A00031F80790CA5371688847484850F824202C704946204690470446FF202870306869
:2035C0008047D8F800107A5A14437C527168884706F022FD0746B7F1FF3F14D007B93C4F2C
:2035E000E869B84238BF071C306880470446286AFFF74AFF696A3846491C6962FFF751FF25
:20360000716820468847BDE8FE83C0462F4600200EB50820ADF800000A20ADF802004FF03B
:20362000FF30019026480168684688470EBD294808B50068FFF7E7FE08B1FFF74EFEFFF749
:203640004FFFFFF7E5FFFAE708F0A6B870B50D460646A8B207F0F2FF041C03D031462A462B
:20366000FFF7A2FC204670BD2C46002054460020022908BF01780CD0032908BF017805D04F
:2036800004290AD1C278017801EB0261827801EB0241407801EB002070470078704700F855
:2036A000011B0A0A00F8012B0A0C00F8012B090E00F8011B7047C04644480020B7320100FE
:2036C00044480020B048002048480020A0C201008EC2F528504600202DE9F843DFF80C5765
:2036E00004462868894690461E46002708B1112033E05EB1212004F07BFD317E814205D3BD
:20370000222004F075FD317E884201D2022024E0782007F093FF286008B913201DE078225B
:203720000021FFF73FFC29684F7028680470286880F802902868011DA1F800804E60CF61A4
:2037400080F8247014B100F0C0F907462968012048700FB100F0E0FA3846BDE8F28338B529
:20376000DFF888562B68002433B193F82420022A1CBF032A042A01D0122032BD9A888A42E8
:2037800001D0022032BD0146102203F10C00FFF70BFC28681021353001F066F8286800F1DB
:2037A000250200F135010C3000F00DF92868417802781AB103290DD1022107E0042902D1E7
:2037C0000221417006E0032904D10521417000F092F90446204632BDDFF8101688607047A1
:2037E000DFF8081648607047DFF80026126832B19288824203D1012908BF00F08DBA70478A
:203800001720AEE270B586B0044600208DF80000A0680578691E0A2939D8DFE801F0060683
:203820000D1115191D2125292D0001A904F09DF9122824D106202BE001A904F009FA1EE050
:2038400001A904F021FA1AE001A904F034FA16E001A904F048FA12E001A904F061FA0EE03A
:2038600001A904F087FA0AE001A904F08EFA06E001A904F0A1FA02E001A904F0B6FAD8B939
:20388000608805F0F1FF072628B9082612E007208DF8000013E0027BDFF85015082A0CBFD8
:2038A0008968496831B10B68190003D001AA2946984706468DF800609DF8000020B16088AD
:2038C00000A900F005F801E000F0EAFE06B070BD38B50C46DFF818352246022104F093FA47
:2038E0000546207800F03DFA284632BD70B5DFF8FC440546206800280E463DD08188A942D5
:203900003AD1417806292FD1017809B381684969026ACB0704D5137BDB0748BF072113D447
:20392000C1F34003002B1FBFD368C3F34003002B092109D1C1F3800100291EBFD168C1F3FC
:203940008001002902D00B21417007E0A06800E0606818B14068010018BF80472068407827
:20396000122816D1002004E0112905D106B13226304600F0F6F90CE03EB9284605F074FFF5
:2039800018B1017941F01001017129463046FFF7B3F9012070BD10B5DFF85044206888B16A
:2039A000007800280CBF6068A06818B14068010018BF804720684078122803D1BDE8104079
:2039C0000020CEE110BD2DE9F34FDFF8206430688DB0904608B912203DE0808805F044FF9D
:2039E000050008BF142036D009A800F0E2F93068017871B1D0F8209004F05FFD04460020E0
:203A000004F05EFD95F805A009AE074605F1060B0BE0066A04F051FD8246002004F050FD54
:203A20006C790DF124098346AF1D07A9484604F045F805A9304604F03DF8CDF81080CDF80B
:203A40000CB0CDF808A0019700940E990D9805AB07AA00F082FE0FB0BDE8F08F70B5DFF815
:203A60008C530446686886B000281CBF006800280E461BD030788DF8040070788DF80500A2
:203A800002A8B17800F013FFF0786B688DF80C0001AA7068049001211B682046984728B1AB
:203AA0008DF8000000A96088FFF712FF06B070BD38B5CE4CA46834B1A5682C0003D0049C62
:203AC0000094A84732BD022032BD1FB500F031F870B100A800F06DF9216888880978002914
:203AE00014BFC44BC44B00AA072104F08CF900E0012004B010BD1FB500F01BF800F125011A
:203B0000102200A8FFF750FA2068BC4B0AE01FB500F00FF800F13501102200A8FFF744FA12
:203B20002068B74B808800AA112104F06CF904B010BDAE4C20687047F8B5AC4F0446386872
:203B4000006A0025002840F0AD80102007F076FD39680028086200F0A3808E6810222146E2
:203B6000FFF722FA38680178002973D1026A12F80CCF06F114010CF0010C0B6803F00107D9
:203B8000674518BF00275B0847EA43030B605F08D2F800C04FEA5C0C00F087F818BF002737
:203BA00023F0020343EA47030B609F08D2F800C04FEA9C0C00F079F818BF002723F0040380
:203BC00043EA87030B60DF08D2F800C04FEADC0C00F06BF818BF002723F0080343EAC703CB
:203BE0000B601F0AD2F800C04FEA1C2C00F05DF818BF002723F4807343EA07230B605F0AAE
:203C0000D2F800C04FEA5C2C00F04FF818BF002723F4007343EA47230B609F0AD2F800C065
:203C20004FEA9C2C00F041F818BF002723F4806343EA87230B60DF0A1268D20A07F00107E2
:203C400002F00102974218BF002723F4006242EAC7220A60617800291EBF71780029052189
:203C600019D16168C1F3800121B9B17C490758BF012110D50178002919BF31782278327880
:203C800021780529B8BF052A08DA0FF28C1302EB8202D218895C2030017104E0182502E030
:203CA000132500E011252846F2BD07F001070CF0010C674570470A46524B15E010B586B051
:203CC0000446ADF800101046014608220DF10200FFF76AF94C4B00AA0B21204604F093F873
:203CE00006B010BD0A46494B112104F08CB81CB58DF8001004461046014606220DF101007F
:203D0000FFF752F9424B00AA0821204604F07BF813BD0A463F4BE7E710B5FFF70AFFE0B168
:203D2000006A08B107F09BFC2068806E08B107F096FC2068C06E08B107F091FC2068006F30
:203D400008B107F08CFC2068406F08B107F087FC206807F084FC00202060BDE8104000F03D
:203D6000ADBC224900B5096885B081B14A6F03920A6F0292CA6E01928A6E00920B7F8A8896
:203D80000978FFF73FF805B05DF804EBC4E705B000BD16490968102000291CBF0A6A002ABD
:203DA00006D0896821B1087E117A814238BF0846704738B504460D48006800281CBF8568B6
:203DC000002D0CD02878207068786070201DA97C00F06DFD287E20726869E06031BD2046A1
:203DE000BDE8384010220021FFF7DCB8504800209F7C0100B57A0100BD7A01003F7C0100D1
:203E0000677C0100D57C0100FD7C0100457D0100577D0100A77D010001010201020101022A
:203E20000102030304010301010101010303020103000000DFF8BC068178FF2900D170471E
:203E40002DE9F84F40684FF4907202FB010400F02FFA02FB0100009004F20B1001780129BB
:203E600008BF417800F08D8004F1740504F58C76287B022804BF00202873F18811B130792D
:203E8000FFF7AAF960892081DFF86C06817A90F807C0077BC37A427B01EB0C0EBE449E4406
:203EA00002EB0E0804F5877E1FFA88F8BEF8049009F10109AEF80490BEF80090C144AEF8EF
:203EC0000090BEF802908944AEF80290D6F80090DFF82866B9F1000F0DD096F80EA039F83F
:203EE0001AB0D84429F81A8009EB4A08B8F84A908944A8F84A90BCF1000F08BF002B03D188
:203F0000002F08BF002A22D02189E2895118A18100212174217F012904BF618CE1834178A2
:203F200059B101212177A978002904BF297B002903D1A97E09B9618CE183009924310A7C61
:203F400042B3022A04BFC27A002A1FD121E0E28339B100212174217F012907D1618CE1832E
:203F600004E0BEF80610491CAEF806102189A2898A42D4D1207C08B1052901D0082100E0CD
:203F80003E212046BDE8F44F07F0B2BC427A0AB102220A74C77B2268DFF86435FF0704D5DB
:203FA0000169D1600021596105E05B690B60B168D1600021E183DFF84C15496909788907AD
:203FC0004CBF807B81202870204600F076F901280BD001212046FDF75AFB00F008F80128EF
:203FE0001CBFBDE8F14F07F03FBDBDE8F18F2DE9F843DFF80005416880784FF4907202FBD9
:20400000001400F055F904F1680502FB01082868006804F18E0708B100200CE0A87B002854
:2040200004BF287E002807D13878002804BF207F012801D1608CE0832089E18B0818401C02
:204040006081204607F050FC01281EBFDFF8B8040078012801D100F025F9287E01280CD110
:204060006A8B6189208907F03BFC30B121896289481C82421AD06A8B0FE03878012815D15F
:204080007A886189208907F02BFC00281FBF2189481C6289824209D07A88824206D0501EC7
:2040A000608180B207F0D4FC401EE08308F1240898F8100008B100F0F5F804F12E07287E3A
:2040C000012801BF688B2189491C884237D1608104F18401204607F0FFFB688CE18960842F
:2040E00000202077E08360890818A0812189688B07F0AEFCB988EA8BB5F820C001FB0026D9
:20410000A88C8C4504BF3989884202BF698CFA88914206D003096A8CA0794FEA5C0104F0C5
:20412000BEFB287F3870288CB880688CF880A88C3881204607F0CCFB0220287600E0BE8828
:20414000E08B2268D2F80CC0401C00FB06F3DFF8BC6340F6C41000FB03F18C44C2F80CC03F
:204160003668DFF8ACC33678BCF800E0DFF88823B609032E12D1D67BF60748BF4FF0000E22
:204180000CD40EF101061FFA86FEBEF1010F12BF668AB8F80E6006F2DC5600E0668A5E4363
:2041A0004FF4C879B6FBF9F6761C6661ACF800E0A361E38BD4F800C084F82030CF4B9E6814
:2041C000DCF80CE0CCF810606669AEEB06069E60CCF80860DFF828C31E7B06F0F00646F0D0
:2041E00002061E7300265E80DCF814E066690EEB4606CCF814602D7E022D04D13D7800FBAF
:204200000565CCF81450D57BED071DD59D68A5F5A8659D60691A2668B5603161DCF814107D
:2042200001F5F661CCF81410C8F80010B988B94D00FB0150CCF81C00B748007801281EBF89
:20424000B048806A40780FE0BD88DCF814104543A1F5E661A5F51675A942E7D308212046DA
:2042600007F046FB01201BE08CF80B00AB49206843600020107050709070D070107150715A
:204280009071D071107250729072D07210735073D0731061072008702046FDF7ECFC002059
:2042A000BDE8F2830020E0832089401C608170479B48A1790068382270472DE9F047824639
:2042C0000AF106069648317800688B4C382282B002FB01080AF1E3090AF1E8070AF1660548
:2042E00007E0504607F0F0FA012835D15046FDF775FA687D80B3687C02281BD004282ED0FD
:20430000052842D0062871D00728EAD0092800F0BF800B2800F08F800C2800F0C6800D28D5
:2043200000F09E80FC2817D0FD2800F0DD80FE28DFD111E0287C012808D1E07800285AD0DB
:204340001621504607F0D4FA012006E05046FDF7C8FC2874E88A28830020BDE8F687287CD7
:2043600001280ED1A078002845D0FC215046FDF753FA30780AF1B4020AF1AC0107F0A0FA5A
:20438000B7E7504607F098FAE3E7287C01280FD1A07828B101208AF8920000203860786033
:2043A000B87A01286BD106215046FDF735FAA0E799F80000012809D1504607F079FA012842
:2043C000CAD10020B87201202874C5E799F801000028C1D00AF1C3020AF19C010AF1D3001E
:2043E00007F062FA012089F8000082E7287C01281DD1A078002842D0B08B30835046FDF7DA
:20440000EDF900F09BF80120A871397A3078012903D1002107F044FA03E00122002107F02C
:204420003BFA002038723873F872B87261E7504607F02EFA8DE7287C012805D1F87A01288F
:2044400008BFFC21B0D01AE0504607F01DFA0128BBD10020F8728AF892000120287448E71B
:20446000287C012810D1A07830B100208AF8920000F064F80120A871E078002810D100F08A
:2044800057F8A2D122215CE7504607F0C1FA60E7287C012805D1A0780028F0D0B08B3083B4
:2044A00024E75046FDF7C0F853E7287C012815D1787E012808D1B87E012804D100F032F87C
:2044C000002007F0DDF911E700F032F87FF444AF00F028F8222007F0D3F9D3E70120F87619
:2044E000504607F0C9F934E798F820105046FDF793F9B2E7B04C0020704E0020E04D00209C
:20450000384D0020F4C20100894C002040480020B6480020F0DDFFFF864C0020B84C0020A3
:2045200038480020388C0090FB8B3A7F31787047288B401E288380B2002870470120287062
:20454000504607F095B9704738B5614D0446286808B1102032BD07F087F958B9122007F0CB
:204560006DF8286020B1002101704470002032BD132032BD012032BD38B504000D4618BFDB
:20458000002D01D1022032BD032100A800F06CF900A82A4600F027F8040004D1032200A91C
:2045A000E81CFEF701FD204632BD30B504000D4618BF002D83B001D102203EBD0322E91C23
:2045C00000A8FEF7F1FC00A801AA00F00CF848B90322294601A8FEF700FD012801D10020BF
:2045E0003EBD01203EBD817801F03F0141F040018170204600A980E030B50C46002818BF72
:20460000002C8DB0154600D00DB9022011E00146102200F06FF81022214604A8FEF737FDEF
:2046200000F099F80446102208A92846FEF72FFD20460DB030BD70B5254C0546206870B3A1
:20464000A5B9027862B90822801CFEF7ADFC07F00BF918B92168012008701FE0012503E00D
:2046600008220A30FEF7A0FC2068B8B11220FEF769FC06000DD0C1203070757010222068C5
:20468000811CB01CFEF790FC206840783146FEF760FD206806F0E3FF00202060012070BDD9
:2046A00080B5202003F0A4FD38B1024609480078BDE80840012105F060BC01BD0548007854
:2046C000012105F072BC0248006800B101207047A8480020BB48002070B58CB000F020F8BE
:2046E00000F006F8280A8DF81E008DF81F50ABE01022214600A8FEF7CABC70B58CB000F06B
:204700000FF8FFF7F5FF032229460DF11D00FEF7BEFC00F020F8044603220DF12D0198E02F
:2047200004460D4616463022002100A8FEF73ABC70B58CB0FFF7F4FFFFF7DAFF00F08FF8EA
:2047400000F009F89DF82F109DF82E2001EB022131800CB070BD00A8C2E0F0B595B0054689
:204760000C4616461F463022002108A8FEF71AFC1022294608A8FEF78AFC1022002100A831
:20478000FEF710FC07223146FFF7B4FF072239460DF10700FEF77BFC1C9901B101218DF8A8
:2047A0000E101A9901B101218DF80F101022002104A8FEF7F7FB1B99062205A8FEF767FCE9
:2047C0001D9906220DF11A00FEF761FC102221460CA8FEF75CFC00A90CA800F01AF808A8E8
:2047E00000F07EF80446102210A90CA8FEF7DCFB04A90CA800F00DF808A800F071F80546F4
:204800001E98102210A9FEF742FC45EA040015B0F0BD10B51022037811F8014B6340521E45
:2048200000F8013BF7D110BD70B50C468CB0154601461E461022FFF75DFF0822214604A835
:20484000FEF725FC00F00BF8FFF785FF0446102208A93046FEF71BFC20460CB070BD0822AD
:20486000294606A8FEF713BC70B504460D46002609E006F085FF010A3155761CF6B2AE4251
:204880003CBF3055761CF6B2AE42F2D370BD006800F00301C0F3800241EA8201C0F3C002C8
:2048A00041EAC201000941EA0010C0B27047026861F3010202604A0703684CBF042200226B
:2048C00023F004031A4302600B074CBF0823002322F0F8021A43090942EA011101607047C3
:2048E00000F1200200F1100106F0BABF2DE9F0470700144614BF002C022088B089463FD04F
:2049000009F10405A8B206F099FE060036D003F0C3FD80464A463946301DFEF7B8FB86F8A6
